{
  "contractName": "Hotel",
  "abi": [
    {
      "inputs": [
        {
          "internalType": "uint256",
          "name": "_maxRoomNumber",
          "type": "uint256"
        }
      ],
      "stateMutability": "nonpayable",
      "type": "constructor"
    },
    {
      "anonymous": false,
      "inputs": [
        {
          "indexed": false,
          "internalType": "address",
          "name": "_from",
          "type": "address"
        },
        {
          "indexed": false,
          "internalType": "address",
          "name": "_to",
          "type": "address"
        },
        {
          "indexed": false,
          "internalType": "uint256",
          "name": "_amount",
          "type": "uint256"
        }
      ],
      "name": "Transfer",
      "type": "event"
    },
    {
      "inputs": [
        {
          "internalType": "uint256",
          "name": "",
          "type": "uint256"
        }
      ],
      "name": "booked",
      "outputs": [
        {
          "internalType": "bool",
          "name": "",
          "type": "bool"
        }
      ],
      "stateMutability": "view",
      "type": "function"
    },
    {
      "inputs": [],
      "name": "deployer",
      "outputs": [
        {
          "internalType": "address payable",
          "name": "",
          "type": "address"
        }
      ],
      "stateMutability": "view",
      "type": "function"
    },
    {
      "inputs": [
        {
          "internalType": "address",
          "name": "",
          "type": "address"
        }
      ],
      "name": "loyaltyPoints",
      "outputs": [
        {
          "internalType": "uint256",
          "name": "",
          "type": "uint256"
        }
      ],
      "stateMutability": "view",
      "type": "function"
    },
    {
      "inputs": [
        {
          "internalType": "uint256",
          "name": "",
          "type": "uint256"
        }
      ],
      "name": "roomOwner",
      "outputs": [
        {
          "internalType": "address",
          "name": "",
          "type": "address"
        }
      ],
      "stateMutability": "view",
      "type": "function"
    },
    {
      "inputs": [
        {
          "internalType": "uint256",
          "name": "",
          "type": "uint256"
        }
      ],
      "name": "roomPrice",
      "outputs": [
        {
          "internalType": "uint256",
          "name": "",
          "type": "uint256"
        }
      ],
      "stateMutability": "view",
      "type": "function"
    },
    {
      "inputs": [
        {
          "internalType": "uint256",
          "name": "",
          "type": "uint256"
        }
      ],
      "name": "timestamp",
      "outputs": [
        {
          "internalType": "uint256",
          "name": "",
          "type": "uint256"
        }
      ],
      "stateMutability": "view",
      "type": "function"
    },
    {
      "inputs": [
        {
          "internalType": "uint256",
          "name": "_roomNumber",
          "type": "uint256"
        },
        {
          "internalType": "uint256",
          "name": "_period",
          "type": "uint256"
        }
      ],
      "name": "bookRoom",
      "outputs": [
        {
          "internalType": "bool",
          "name": "success",
          "type": "bool"
        }
      ],
      "stateMutability": "payable",
      "type": "function"
    },
    {
      "inputs": [
        {
          "internalType": "address",
          "name": "_address",
          "type": "address"
        },
        {
          "internalType": "uint256",
          "name": "_roomNumber",
          "type": "uint256"
        }
      ],
      "name": "transferRoomOwnership",
      "outputs": [
        {
          "internalType": "bool",
          "name": "success",
          "type": "bool"
        }
      ],
      "stateMutability": "nonpayable",
      "type": "function"
    },
    {
      "inputs": [
        {
          "internalType": "uint256",
          "name": "_roomNumber",
          "type": "uint256"
        }
      ],
      "name": "viewTimeLeft",
      "outputs": [
        {
          "internalType": "uint256",
          "name": "",
          "type": "uint256"
        }
      ],
      "stateMutability": "nonpayable",
      "type": "function"
    },
    {
      "inputs": [
        {
          "internalType": "uint256",
          "name": "_roomNumber",
          "type": "uint256"
        },
        {
          "internalType": "uint256",
          "name": "_period",
          "type": "uint256"
        }
      ],
      "name": "extendTime",
      "outputs": [
        {
          "internalType": "bool",
          "name": "success",
          "type": "bool"
        }
      ],
      "stateMutability": "payable",
      "type": "function"
    },
    {
      "inputs": [],
      "name": "getDiscount",
      "outputs": [
        {
          "internalType": "uint256",
          "name": "",
          "type": "uint256"
        }
      ],
      "stateMutability": "payable",
      "type": "function"
    },
    {
      "inputs": [
        {
          "internalType": "uint256",
          "name": "_discountToken",
          "type": "uint256"
        },
        {
          "internalType": "uint256",
          "name": "_roomNumber",
          "type": "uint256"
        },
        {
          "internalType": "uint256",
          "name": "_period",
          "type": "uint256"
        }
      ],
      "name": "bookWithDiscount",
      "outputs": [
        {
          "internalType": "bool",
          "name": "success",
          "type": "bool"
        }
      ],
      "stateMutability": "payable",
      "type": "function"
    },
    {
      "inputs": [
        {
          "internalType": "uint256",
          "name": "_roomNumber",
          "type": "uint256"
        }
      ],
      "name": "makeRoomAvilable",
      "outputs": [],
      "stateMutability": "nonpayable",
      "type": "function"
    }
  ],
  "bytecode": "0x60806040523480156200001157600080fd5b5060405162001b1a38038062001b1a833981810160405281019062000037919062000258565b60148111156200004657600080fd5b8060008190555033600160006101000a81548173ffffffffffffffffffffffffffffffffffffffff021916908373ffffffffffffffffffffffffffffffffffffffff1602179055506000600190505b600054811162000210576005811015620000e757662386f26fc10000600760008381526020019081526020016000208190555060036008600083815260200190815260200160002081905550620001ce565b60058110158015620000f95750600a81105b156200013d5766470de4df820000600760008381526020019081526020016000208190555060076008600083815260200190815260200160002081905550620001cd565b600a81101580156200014f5750600f81105b156200019357666a94d74f4300006007600083815260200190815260200160002081905550600c6008600083815260200190815260200160002081905550620001cc565b668e1bc9bf0400006007600083815260200190815260200160002081905550600f60086000838152602001908152602001600020819055505b5b5b60006004600083815260200190815260200160002060006101000a81548160ff02191690831515021790555080806200020790620002b9565b91505062000095565b505062000307565b600080fd5b6000819050919050565b62000232816200021d565b81146200023e57600080fd5b50565b600081519050620002528162000227565b92915050565b60006020828403121562000271576200027062000218565b5b6000620002818482850162000241565b91505092915050565b7f4e487b7100000000000000000000000000000000000000000000000000000000600052601160045260246000fd5b6000620002c6826200021d565b91507fffffffffffffffffffffffffffffffffffffffffffffffffffffffffffffffff821415620002fc57620002fb6200028a565b5b600182019050919050565b61180380620003176000396000f3fe6080604052600436106100c25760003560e01c80638a3a1a181161007f578063d5f3948811610059578063d5f39488146102b3578063f7ccc184146102de578063f8d917ed1461030e578063fcc5d4801461034b576100c2565b80638a3a1a1814610228578063d137874b14610258578063d45e425914610276576100c2565b8063129d8e68146100c75780631386dc121461010457806332eb220614610141578063354da17b146101715780634b7699cf146101ae57806380fbf583146101eb575b600080fd5b3480156100d357600080fd5b506100ee60048036038101906100e9919061104b565b610374565b6040516100fb9190611093565b60405180910390f35b34801561011057600080fd5b5061012b6004803603810190610126919061104b565b610394565b60405161013891906110bd565b60405180910390f35b61015b600480360381019061015691906110d8565b6103ac565b6040516101689190611093565b60405180910390f35b34801561017d57600080fd5b506101986004803603810190610193919061104b565b61073f565b6040516101a5919061116c565b60405180910390f35b3480156101ba57600080fd5b506101d560048036038101906101d0919061104b565b610772565b6040516101e291906110bd565b60405180910390f35b3480156101f757600080fd5b50610212600480360381019061020d919061104b565b6107c3565b60405161021f91906110bd565b60405180910390f35b610242600480360381019061023d9190611187565b6107db565b60405161024f9190611093565b60405180910390f35b610260610b01565b60405161026d91906110bd565b60405180910390f35b34801561028257600080fd5b5061029d600480360381019061029891906111f3565b610c4c565b6040516102aa91906110bd565b60405180910390f35b3480156102bf57600080fd5b506102c8610c64565b6040516102d59190611241565b60405180910390f35b6102f860048036038101906102f39190611187565b610c8a565b6040516103059190611093565b60405180910390f35b34801561031a57600080fd5b506103356004803603810190610330919061125c565b610de5565b6040516103429190611093565b60405180910390f35b34801561035757600080fd5b50610372600480360381019061036d919061104b565b610eae565b005b60046020528060005260406000206000915054906101000a900460ff1681565b60026020528060005260406000206000915090505481565b600083600360003373ffffffffffffffffffffffffffffffffffffffff1673ffffffffffffffffffffffffffffffffffffffff168152602001908152602001600020541480156103fd575060008414155b61043c576040517f08c379a0000000000000000000000000000000000000000000000000000000008152600401610433906112f9565b60405180910390fd5b60008311801561044e57506000548311155b61048d576040517f08c379a000000000000000000000000000000000000000000000000000000000815260040161048490611365565b60405180910390fd5b600a60096007600086815260200190815260200160002054601e856104b291906113e3565b6104bc9190611414565b6104c69190611414565b6104d091906113e3565b341015610512576040517f08c379a0000000000000000000000000000000000000000000000000000000008152600401610509906114e0565b60405180910390fd5b600015156004600085815260200190815260200160002060009054906101000a900460ff16151514610579576040517f08c379a00000000000000000000000000000000000000000000000000000000081526004016105709061154c565b60405180910390fd5b6000600360003373ffffffffffffffffffffffffffffffffffffffff1673ffffffffffffffffffffffffffffffffffffffff1681526020019081526020016000208190555060016004600085815260200190815260200160002060006101000a81548160ff021916908315150217905550336006600085815260200190815260200160002060006101000a81548173ffffffffffffffffffffffffffffffffffffffff021916908373ffffffffffffffffffffffffffffffffffffffff160217905550600160009054906101000a900473ffffffffffffffffffffffffffffffffffffffff1673ffffffffffffffffffffffffffffffffffffffff166108fc349081150290604051600060405180830381858888f193505050501580156106a4573d6000803e3d6000fd5b507fddf252ad1be2c89b69c2b068fc378daa952ba7f163c4a11628f55a4df523b3ef33600160009054906101000a900473ffffffffffffffffffffffffffffffffffffffff16346040516106fa939291906115cb565b60405180910390a1603c8261070f9190611414565b9150814261071d9190611602565b6002600085815260200190815260200160002081905550600190509392505050565b60066020528060005260406000206000915054906101000a900473ffffffffffffffffffffffffffffffffffffffff1681565b600060016004600084815260200190815260200160002060006101000a81548160ff02191690831515021790556107a857600080fd5b60026000838152602001908152602001600020549050919050565b60076020528060005260406000206000915090505481565b600080831180156107ee57506000548311155b61082d576040517f08c379a000000000000000000000000000000000000000000000000000000000815260040161082490611365565b60405180910390fd5b6007600084815260200190815260200160002054601e8361084e91906113e3565b6108589190611414565b34101561089a576040517f08c379a0000000000000000000000000000000000000000000000000000000008152600401610891906114e0565b60405180910390fd5b600015156004600085815260200190815260200160002060009054906101000a900460ff16151514610901576040517f08c379a00000000000000000000000000000000000000000000000000000000081526004016108f89061154c565b60405180910390fd5b60016004600085815260200190815260200160002060006101000a81548160ff021916908315150217905550336006600085815260200190815260200160002060006101000a81548173ffffffffffffffffffffffffffffffffffffffff021916908373ffffffffffffffffffffffffffffffffffffffff160217905550600160009054906101000a900473ffffffffffffffffffffffffffffffffffffffff1673ffffffffffffffffffffffffffffffffffffffff166108fc349081150290604051600060405180830381858888f193505050501580156109e7573d6000803e3d6000fd5b507fddf252ad1be2c89b69c2b068fc378daa952ba7f163c4a11628f55a4df523b3ef33600160009054906101000a900473ffffffffffffffffffffffffffffffffffffffff1634604051610a3d939291906115cb565b60405180910390a16008600084815260200190815260200160002054601e83610a6691906113e3565b610a709190611414565b600560003373ffffffffffffffffffffffffffffffffffffffff1673ffffffffffffffffffffffffffffffffffffffff1681526020019081526020016000206000828254610abe9190611602565b92505081905550603c82610ad29190611414565b91508142610ae09190611602565b60026000858152602001908152602001600020819055506001905092915050565b600060c8600560003373ffffffffffffffffffffffffffffffffffffffff1673ffffffffffffffffffffffffffffffffffffffff168152602001908152602001600020541015610b86576040517f08c379a0000000000000000000000000000000000000000000000000000000008152600401610b7d906116a4565b60405180910390fd5b6000629896807f49c053552eae2587348d8f98a617dc34420bc53dce287a6c6099b60672779e7760001c610bba91906116c4565b905080600360003373ffffffffffffffffffffffffffffffffffffffff1673ffffffffffffffffffffffffffffffffffffffff168152602001908152602001600020819055506000600560003373ffffffffffffffffffffffffffffffffffffffff1673ffffffffffffffffffffffffffffffffffffffff168152602001908152602001600020819055508091505090565b60056020528060005260406000206000915090505481565b600160009054906101000a900473ffffffffffffffffffffffffffffffffffffffff1681565b60003373ffffffffffffffffffffffffffffffffffffffff166006600085815260200190815260200160002060009054906101000a900473ffffffffffffffffffffffffffffffffffffffff1673ffffffffffffffffffffffffffffffffffffffff1614610cf757600080fd5b34662386f26fc10000601e84610d0d91906113e3565b610d179190611414565b1115610d2257600080fd5b6008600084815260200190815260200160002054601e83610d4391906113e3565b610d4d9190611414565b600560003373ffffffffffffffffffffffffffffffffffffffff1673ffffffffffffffffffffffffffffffffffffffff1681526020019081526020016000206000828254610d9b9190611602565b92505081905550603c82610daf9190611414565b915081600260008581526020019081526020016000206000828254610dd49190611602565b925050819055506001905092915050565b60003373ffffffffffffffffffffffffffffffffffffffff166006600084815260200190815260200160002060009054906101000a900473ffffffffffffffffffffffffffffffffffffffff1673ffffffffffffffffffffffffffffffffffffffff1614610e5257600080fd5b826006600084815260200190815260200160002060006101000a81548173ffffffffffffffffffffffffffffffffffffffff021916908373ffffffffffffffffffffffffffffffffffffffff1602179055506001905092915050565b6002600082815260200190815260200160002054421015610f04576040517f08c379a0000000000000000000000000000000000000000000000000000000008152600401610efb90611741565b60405180910390fd5b600160009054906101000a900473ffffffffffffffffffffffffffffffffffffffff1673ffffffffffffffffffffffffffffffffffffffff163373ffffffffffffffffffffffffffffffffffffffff1614610f94576040517f08c379a0000000000000000000000000000000000000000000000000000000008152600401610f8b906117ad565b60405180910390fd5b60006004600083815260200190815260200160002060006101000a81548160ff02191690831515021790555060026000828152602001908152602001600020600090556006600082815260200190815260200160002060006101000a81549073ffffffffffffffffffffffffffffffffffffffff021916905550565b600080fd5b6000819050919050565b61102881611015565b811461103357600080fd5b50565b6000813590506110458161101f565b92915050565b60006020828403121561106157611060611010565b5b600061106f84828501611036565b91505092915050565b60008115159050919050565b61108d81611078565b82525050565b60006020820190506110a86000830184611084565b92915050565b6110b781611015565b82525050565b60006020820190506110d260008301846110ae565b92915050565b6000806000606084860312156110f1576110f0611010565b5b60006110ff86828701611036565b935050602061111086828701611036565b925050604061112186828701611036565b9150509250925092565b600073ffffffffffffffffffffffffffffffffffffffff82169050919050565b60006111568261112b565b9050919050565b6111668161114b565b82525050565b6000602082019050611181600083018461115d565b92915050565b6000806040838503121561119e5761119d611010565b5b60006111ac85828601611036565b92505060206111bd85828601611036565b9150509250929050565b6111d08161114b565b81146111db57600080fd5b50565b6000813590506111ed816111c7565b92915050565b60006020828403121561120957611208611010565b5b6000611217848285016111de565b91505092915050565b600061122b8261112b565b9050919050565b61123b81611220565b82525050565b60006020820190506112566000830184611232565b92915050565b6000806040838503121561127357611272611010565b5b6000611281858286016111de565b925050602061129285828601611036565b9150509250929050565b600082825260208201905092915050565b7f556e7265636f676e697a656420746f6b656e0000000000000000000000000000600082015250565b60006112e360128361129c565b91506112ee826112ad565b602082019050919050565b60006020820190508181036000830152611312816112d6565b9050919050565b7f526f6f6d20756e617661696c61626c6500000000000000000000000000000000600082015250565b600061134f60108361129c565b915061135a82611319565b602082019050919050565b6000602082019050818103600083015261137e81611342565b9050919050565b7f4e487b7100000000000000000000000000000000000000000000000000000000600052601260045260246000fd5b7f4e487b7100000000000000000000000000000000000000000000000000000000600052601160045260246000fd5b60006113ee82611015565b91506113f983611015565b92508261140957611408611385565b5b828204905092915050565b600061141f82611015565b915061142a83611015565b9250817fffffffffffffffffffffffffffffffffffffffffffffffffffffffffffffffff0483118215151615611463576114626113b4565b5b828202905092915050565b7f496e73756666696369656e742046756e6420746f20636f6d706c65746520707560008201527f7263686173650000000000000000000000000000000000000000000000000000602082015250565b60006114ca60268361129c565b91506114d58261146e565b604082019050919050565b600060208201905081810360008301526114f9816114bd565b9050919050565b7f526f6f6d2068617320616c7265616479206265656e20626f6f6b656400000000600082015250565b6000611536601c8361129c565b915061154182611500565b602082019050919050565b6000602082019050818103600083015261156581611529565b9050919050565b6000819050919050565b600061159161158c6115878461112b565b61156c565b61112b565b9050919050565b60006115a382611576565b9050919050565b60006115b582611598565b9050919050565b6115c5816115aa565b82525050565b60006060820190506115e0600083018661115d565b6115ed60208301856115bc565b6115fa60408301846110ae565b949350505050565b600061160d82611015565b915061161883611015565b9250827fffffffffffffffffffffffffffffffffffffffffffffffffffffffffffffffff0382111561164d5761164c6113b4565b5b828201905092915050565b7f4e6f7420656e6f756768206c6f79616c7479506f696e74730000000000000000600082015250565b600061168e60188361129c565b915061169982611658565b602082019050919050565b600060208201905081810360008301526116bd81611681565b9050919050565b60006116cf82611015565b91506116da83611015565b9250826116ea576116e9611385565b5b828206905092915050565b7f53657373696f6e206e6f74206578706972656400000000000000000000000000600082015250565b600061172b60138361129c565b9150611736826116f5565b602082019050919050565b6000602082019050818103600083015261175a8161171e565b9050919050565b7f52657369737472696374656420746f204465706c6f796572206f6e6c79000000600082015250565b6000611797601d8361129c565b91506117a282611761565b602082019050919050565b600060208201905081810360008301526117c68161178a565b905091905056fea26469706673582212207a5b6f8763cebe303056829b50a076c86e8c580290c6b0bb16d8631d51441d9764736f6c634300080c0033",
  "immutableReferences": {},
  "source": "// SPDX-License-Identifier:MIT\r\npragma solidity ^0.8.12;\r\n\r\ncontract Hotel {\r\n    uint256 maxRoomNumber;\r\n    address payable public deployer;\r\n    mapping(uint256 => uint256) public timestamp;\r\n    mapping(address => uint256) internal discountToken;\r\n    mapping(uint256 => bool) public booked;\r\n    mapping(address => uint256) public loyaltyPoints;\r\n    mapping(uint256 => address) public roomOwner;\r\n    mapping(uint256 => uint256) public roomPrice;\r\n    mapping(uint256 => uint256) internal roomLoyaltyPoints;\r\n\r\n    constructor(uint256 _maxRoomNumber) {\r\n        require(_maxRoomNumber <= 20);\r\n        maxRoomNumber = _maxRoomNumber;\r\n        deployer = payable(msg.sender);\r\n        for (uint256 i = 1; i <= maxRoomNumber; i++) {\r\n            if (i < 5) {\r\n                roomPrice[i] = 0.01 ether;\r\n                roomLoyaltyPoints[i] = 3;\r\n            } else if (i >= 5 && i < 10) {\r\n                roomPrice[i] = 0.02 ether;\r\n                roomLoyaltyPoints[i] = 7;\r\n            } else if (i >= 10 && i < 15) {\r\n                roomPrice[i] = 0.03 ether;\r\n                roomLoyaltyPoints[i] = 12;\r\n            } else {\r\n                roomPrice[i] = 0.04 ether;\r\n                roomLoyaltyPoints[i] = 15;\r\n            }\r\n            booked[i] = false;\r\n        }\r\n    }\r\n\r\n    event Transfer(address _from, address _to, uint256 _amount);\r\n\r\n    function bookRoom(uint256 _roomNumber, uint256 _period) public payable returns(bool success) {\r\n        require(\r\n            _roomNumber > 0 && _roomNumber <= maxRoomNumber,\r\n            \"Room unavailable\"\r\n        );\r\n        require(\r\n            msg.value >= (_period / 30) * roomPrice[_roomNumber],\r\n            \"Insufficient Fund to complete purchase\"\r\n        );\r\n        require(booked[_roomNumber] == false, \"Room has already been booked\");\r\n\r\n        booked[_roomNumber] = true;\r\n        roomOwner[_roomNumber] = msg.sender;\r\n\r\n        // Emitting the transfer and doing th transfer\r\n        deployer.transfer(msg.value);\r\n        emit Transfer(msg.sender, deployer, msg.value);\r\n\r\n        // Setting loyaltyPoints\r\n        loyaltyPoints[msg.sender] +=\r\n            (_period / 30) *\r\n            roomLoyaltyPoints[_roomNumber];\r\n\r\n        // Setting timestamp\r\n\r\n        _period = _period * 60;\r\n        timestamp[_roomNumber] = block.timestamp + _period;\r\n\r\n        return true;\r\n    }\r\n\r\n    function transferRoomOwnership(address _address, uint256 _roomNumber)\r\n        public returns(bool success)\r\n    {\r\n        require(roomOwner[_roomNumber] == msg.sender);\r\n        roomOwner[_roomNumber] = _address;\r\n        return true;\r\n    }\r\n\r\n    function viewTimeLeft(uint256 _roomNumber) public returns (uint256) {\r\n        require(booked[_roomNumber] = true);\r\n        return timestamp[_roomNumber];\r\n    }\r\n\r\n    function extendTime(uint256 _roomNumber, uint256 _period) public payable returns(bool success) {\r\n        require(roomOwner[_roomNumber] == msg.sender);\r\n        require((_period / 30) * 0.01 ether <= msg.value);\r\n        // Setting loyaltyPoints\r\n        loyaltyPoints[msg.sender] +=\r\n            (_period / 30) *\r\n            roomLoyaltyPoints[_roomNumber];\r\n\r\n        _period = _period * 60;\r\n        timestamp[_roomNumber] += _period;\r\n        return true;\r\n    }\r\n\r\n    function getDiscount() public payable returns (uint256) {\r\n        require(loyaltyPoints[msg.sender] >= 200, \"Not enough loyaltyPoints\");\r\n        uint256 token = uint256(keccak256(\"grabtoken\")) % 10000000;\r\n        discountToken[msg.sender] = token;\r\n        loyaltyPoints[msg.sender] = 0;\r\n        return token;\r\n    }\r\n\r\n    function bookWithDiscount(\r\n        uint256 _discountToken,\r\n        uint256 _roomNumber,\r\n        uint256 _period\r\n    ) public payable returns (bool success){\r\n        require(\r\n            discountToken[msg.sender] == _discountToken && _discountToken != 0,\r\n            \"Unrecognized token\"\r\n        );\r\n        require(\r\n            _roomNumber > 0 && _roomNumber <= maxRoomNumber,\r\n            \"Room unavailable\"\r\n        );\r\n        require(\r\n            // 10% percent off as discount\r\n            msg.value >= (((_period / 30) * roomPrice[_roomNumber]) * 9) / 10,\r\n            \"Insufficient Fund to complete purchase\"\r\n        );\r\n        require(booked[_roomNumber] == false, \"Room has already been booked\");\r\n        discountToken[msg.sender] = 0;\r\n        //  When claiming a discount no loyalty points are added\r\n\r\n        booked[_roomNumber] = true;\r\n        roomOwner[_roomNumber] = msg.sender;\r\n\r\n        // Emitting the transfer and doing th transfer\r\n        deployer.transfer(msg.value);\r\n        emit Transfer(msg.sender, deployer, msg.value);\r\n\r\n        // Setting timestamp\r\n        _period = _period * 60;\r\n        timestamp[_roomNumber] = block.timestamp + _period;\r\n\r\n        return true;\r\n    }\r\n    function makeRoomAvilable(uint _roomNumber) public {\r\n        require(block.timestamp >= timestamp[_roomNumber] , \"Session not expired\");\r\n        require(msg.sender == deployer , \"Resistricted to Deployer only\");\r\n        booked[_roomNumber] = false;\r\n        delete timestamp[_roomNumber];\r\n        delete roomOwner[_roomNumber];\r\n    }\r\n}\r\n",
  "sourcePath": "P:\\Web3 projects\\recap\\truffle\\contracts\\Hotel.sol",
  "compiler": {
    "name": "solc",
    "version": "0.8.12+commit.f00d7308.Emscripten.clang"
  },
  "schemaVersion": "3.4.6",
  "updatedAt": "2022-04-05T16:25:32.194Z",
  "devdoc": {
    "kind": "dev",
    "methods": {},
    "version": 1
  },
  "userdoc": {
    "kind": "user",
    "methods": {},
    "version": 1
  }
}