{
  "contractName": "Hotel",
  "abi": [
    {
      "inputs": [
        {
          "internalType": "uint256",
          "name": "_maxRoomNumber",
          "type": "uint256"
        }
      ],
      "stateMutability": "nonpayable",
      "type": "constructor"
    },
    {
      "anonymous": false,
      "inputs": [
        {
          "indexed": false,
          "internalType": "address",
          "name": "_from",
          "type": "address"
        },
        {
          "indexed": false,
          "internalType": "address",
          "name": "_to",
          "type": "address"
        },
        {
          "indexed": false,
          "internalType": "uint256",
          "name": "_amount",
          "type": "uint256"
        }
      ],
      "name": "Transfer",
      "type": "event"
    },
    {
      "inputs": [
        {
          "internalType": "uint256",
          "name": "",
          "type": "uint256"
        }
      ],
      "name": "booked",
      "outputs": [
        {
          "internalType": "bool",
          "name": "",
          "type": "bool"
        }
      ],
      "stateMutability": "view",
      "type": "function"
    },
    {
      "inputs": [],
      "name": "deployer",
      "outputs": [
        {
          "internalType": "address payable",
          "name": "",
          "type": "address"
        }
      ],
      "stateMutability": "view",
      "type": "function"
    },
    {
      "inputs": [],
      "name": "viewAvailableRooms",
      "outputs": [
        {
          "internalType": "uint256[]",
          "name": "",
          "type": "uint256[]"
        }
      ],
      "stateMutability": "view",
      "type": "function"
    },
    {
      "inputs": [
        {
          "internalType": "uint256",
          "name": "_roomNumber",
          "type": "uint256"
        }
      ],
      "name": "bookRoom",
      "outputs": [
        {
          "internalType": "bool",
          "name": "",
          "type": "bool"
        }
      ],
      "stateMutability": "payable",
      "type": "function"
    },
    {
      "inputs": [
        {
          "internalType": "uint256",
          "name": "_roomNumber",
          "type": "uint256"
        }
      ],
      "name": "viewRoomPrice",
      "outputs": [
        {
          "internalType": "uint256",
          "name": "",
          "type": "uint256"
        }
      ],
      "stateMutability": "view",
      "type": "function"
    },
    {
      "inputs": [
        {
          "internalType": "address",
          "name": "_address",
          "type": "address"
        }
      ],
      "name": "viewOwnedRoom",
      "outputs": [
        {
          "internalType": "uint256[]",
          "name": "",
          "type": "uint256[]"
        }
      ],
      "stateMutability": "view",
      "type": "function"
    },
    {
      "inputs": [
        {
          "internalType": "address",
          "name": "_address",
          "type": "address"
        },
        {
          "internalType": "uint256",
          "name": "_roomNumber",
          "type": "uint256"
        }
      ],
      "name": "transferRoomOwnership",
      "outputs": [
        {
          "internalType": "bool",
          "name": "",
          "type": "bool"
        }
      ],
      "stateMutability": "nonpayable",
      "type": "function"
    },
    {
      "inputs": [
        {
          "internalType": "uint256",
          "name": "_roomNumber",
          "type": "uint256"
        }
      ],
      "name": "viewTimeLeft",
      "outputs": [
        {
          "internalType": "uint256",
          "name": "",
          "type": "uint256"
        }
      ],
      "stateMutability": "view",
      "type": "function"
    },
    {
      "inputs": [
        {
          "internalType": "uint256",
          "name": "_roomNumber",
          "type": "uint256"
        }
      ],
      "name": "extendTime",
      "outputs": [],
      "stateMutability": "payable",
      "type": "function"
    }
  ],
  "bytecode": "0x60806040523480156200001157600080fd5b506040516200187338038062001873833981810160405281019062000037919062000230565b60148111156200004657600080fd5b80600181905550336000806101000a81548173ffffffffffffffffffffffffffffffffffffffff021916908373ffffffffffffffffffffffffffffffffffffffff1602179055506000600190505b6001548111620001e8576005811015620000bc57662386f26fc1000060068190555062000125565b60058110158015620000ce5750600a81105b15620000e85766470de4df82000060068190555062000124565b600a8110158015620000fa5750600f81105b156200011457666a94d74f43000060068190555062000123565b668e1bc9bf0400006006819055505b5b5b60096040518060400160405280838152602001600654815250908060018154018082558091505060019003906000526020600020906002020160009091909190915060008201518160000155602082015181600101555050600781908060018154018082558091505060019003906000526020600020016000909190919091505560006008600083815260200190815260200160002060006101000a81548160ff0219169083151502179055508080620001df9062000291565b91505062000094565b5050620002df565b600080fd5b6000819050919050565b6200020a81620001f5565b81146200021657600080fd5b50565b6000815190506200022a81620001ff565b92915050565b600060208284031215620002495762000248620001f0565b5b6000620002598482850162000219565b91505092915050565b7f4e487b7100000000000000000000000000000000000000000000000000000000600052601160045260246000fd5b60006200029e82620001f5565b91507fffffffffffffffffffffffffffffffffffffffffffffffffffffffffffffffff821415620002d457620002d362000262565b5b600182019050919050565b61158480620002ef6000396000f3fe6080604052600436106100865760003560e01c80635f49d3d8116100595780635f49d3d81461016d5780638345f29c1461019d578063a27aebbc146101da578063d5f39488146101f6578063f8d917ed1461022157610086565b8063129d8e681461008b578063444f9fa7146100c8578063489d4e35146101055780634b7699cf14610130575b600080fd5b34801561009757600080fd5b506100b260048036038101906100ad9190610da2565b61025e565b6040516100bf9190610dea565b60405180910390f35b3480156100d457600080fd5b506100ef60048036038101906100ea9190610e63565b61027e565b6040516100fc9190610f4e565b60405180910390f35b34801561011157600080fd5b5061011a610315565b6040516101279190610f4e565b60405180910390f35b34801561013c57600080fd5b5061015760048036038101906101529190610da2565b61036d565b6040516101649190610f7f565b60405180910390f35b61018760048036038101906101829190610da2565b6103f1565b6040516101949190610dea565b60405180910390f35b3480156101a957600080fd5b506101c460048036038101906101bf9190610da2565b610749565b6040516101d19190610f7f565b60405180910390f35b6101f460048036038101906101ef9190610da2565b6107d4565b005b34801561020257600080fd5b5061020b610900565b6040516102189190610fbb565b60405180910390f35b34801561022d57600080fd5b5061024860048036038101906102439190610fd6565b610924565b6040516102559190610dea565b60405180910390f35b60086020528060005260406000206000915054906101000a900460ff1681565b6060600360008373ffffffffffffffffffffffffffffffffffffffff1673ffffffffffffffffffffffffffffffffffffffff16815260200190815260200160002080548060200260200160405190810160405280929190818152602001828054801561030957602002820191906000526020600020905b8154815260200190600101908083116102f5575b50505050509050919050565b6060600780548060200260200160405190810160405280929190818152602001828054801561036357602002820191906000526020600020905b81548152602001906001019080831161034f575b5050505050905090565b6000600115156008600084815260200190815260200160002060009054906101000a900460ff161515146103d6576040517f08c379a00000000000000000000000000000000000000000000000000000000081526004016103cd90611073565b60405180910390fd5b60046000838152602001908152602001600020549050919050565b6000808211801561040757506009805490508211155b610446576040517f08c379a000000000000000000000000000000000000000000000000000000000815260040161043d906110df565b60405180910390fd5b6009828154811061045a576104596110ff565b5b9060005260206000209060020201600101543410156104ae576040517f08c379a00000000000000000000000000000000000000000000000000000000081526004016104a5906111a0565b60405180910390fd5b600015156008600084815260200190815260200160002060009054906101000a900460ff16151514610515576040517f08c379a000000000000000000000000000000000000000000000000000000000815260040161050c9061120c565b60405180910390fd5b600360003373ffffffffffffffffffffffffffffffffffffffff1673ffffffffffffffffffffffffffffffffffffffff16815260200190815260200160002082908060018154018082558091505060019003906000526020600020016000909190919091505560016008600084815260200190815260200160002060006101000a81548160ff02191690831515021790555060008054906101000a900473ffffffffffffffffffffffffffffffffffffffff1673ffffffffffffffffffffffffffffffffffffffff166108fc349081150290604051600060405180830381858888f1935050505015801561060d573d6000803e3d6000fd5b507fddf252ad1be2c89b69c2b068fc378daa952ba7f163c4a11628f55a4df523b3ef3360008054906101000a900473ffffffffffffffffffffffffffffffffffffffff16346040516106619392919061129a565b60405180910390a1600560006106779190610cd7565b60005b60078054905081101561070757826007828154811061069c5761069b6110ff565b5b9060005260206000200154146106f4576005600782815481106106c2576106c16110ff565b5b906000526020600020015490806001815401808255809150506001900390600052602060002001600090919091909150555b80806106ff90611300565b91505061067a565b506005600790805461071a929190610cf8565b50610708426107299190611349565b600460008481526020019081526020016000208190555060019050919050565b6000808211801561075c57506001548211155b61079b576040517f08c379a0000000000000000000000000000000000000000000000000000000008152600401610792906113eb565b60405180910390fd5b60096001836107aa919061140b565b815481106107bb576107ba6110ff565b5b9060005260206000209060020201600101549050919050565b600115156008600083815260200190815260200160002060009054906101000a900460ff1615151461083b576040517f08c379a000000000000000000000000000000000000000000000000000000000815260040161083290611073565b60405180910390fd5b7fddf252ad1be2c89b69c2b068fc378daa952ba7f163c4a11628f55a4df523b3ef60008054906101000a900473ffffffffffffffffffffffffffffffffffffffff16333460405161088e9392919061143f565b60405180910390a160008054906101000a900473ffffffffffffffffffffffffffffffffffffffff1673ffffffffffffffffffffffffffffffffffffffff166108fc349081150290604051600060405180830381858888f193505050501580156108fc573d6000803e3d6000fd5b5050565b60008054906101000a900473ffffffffffffffffffffffffffffffffffffffff1681565b60003373ffffffffffffffffffffffffffffffffffffffff168373ffffffffffffffffffffffffffffffffffffffff161415610995576040517f08c379a000000000000000000000000000000000000000000000000000000000815260040161098c906114c2565b60405180910390fd5b600115156008600084815260200190815260200160002060009054906101000a900460ff161515146109fc576040517f08c379a00000000000000000000000000000000000000000000000000000000081526004016109f39061152e565b60405180910390fd5b60005b600360003373ffffffffffffffffffffffffffffffffffffffff1673ffffffffffffffffffffffffffffffffffffffff16815260200190815260200160002080549050811015610ccc57600360003373ffffffffffffffffffffffffffffffffffffffff1673ffffffffffffffffffffffffffffffffffffffff1681526020019081526020016000208181548110610a9a57610a996110ff565b5b9060005260206000200154831415610cb95760026000610aba9190610cd7565b600360008573ffffffffffffffffffffffffffffffffffffffff1673ffffffffffffffffffffffffffffffffffffffff16815260200190815260200160002083908060018154018082558091505060019003906000526020600020016000909190919091505560005b600360003373ffffffffffffffffffffffffffffffffffffffff1673ffffffffffffffffffffffffffffffffffffffff16815260200190815260200160002080549050811015610c6757600360003373ffffffffffffffffffffffffffffffffffffffff1673ffffffffffffffffffffffffffffffffffffffff1681526020019081526020016000208181548110610bbe57610bbd6110ff565b5b90600052602060002001548414610c54576002600360003373ffffffffffffffffffffffffffffffffffffffff1673ffffffffffffffffffffffffffffffffffffffff1681526020019081526020016000208281548110610c2257610c216110ff565b5b906000526020600020015490806001815401808255809150506001900390600052602060002001600090919091909150555b8080610c5f90611300565b915050610b23565b506002600360003373ffffffffffffffffffffffffffffffffffffffff1673ffffffffffffffffffffffffffffffffffffffff168152602001908152602001600020908054610cb7929190610cf8565b505b8080610cc490611300565b9150506109ff565b506001905092915050565b5080546000825590600052602060002090810190610cf59190610d4a565b50565b828054828255906000526020600020908101928215610d395760005260206000209182015b82811115610d38578254825591600101919060010190610d1d565b5b509050610d469190610d4a565b5090565b5b80821115610d63576000816000905550600101610d4b565b5090565b600080fd5b6000819050919050565b610d7f81610d6c565b8114610d8a57600080fd5b50565b600081359050610d9c81610d76565b92915050565b600060208284031215610db857610db7610d67565b5b6000610dc684828501610d8d565b91505092915050565b60008115159050919050565b610de481610dcf565b82525050565b6000602082019050610dff6000830184610ddb565b92915050565b600073ffffffffffffffffffffffffffffffffffffffff82169050919050565b6000610e3082610e05565b9050919050565b610e4081610e25565b8114610e4b57600080fd5b50565b600081359050610e5d81610e37565b92915050565b600060208284031215610e7957610e78610d67565b5b6000610e8784828501610e4e565b91505092915050565b600081519050919050565b600082825260208201905092915050565b6000819050602082019050919050565b610ec581610d6c565b82525050565b6000610ed78383610ebc565b60208301905092915050565b6000602082019050919050565b6000610efb82610e90565b610f058185610e9b565b9350610f1083610eac565b8060005b83811015610f41578151610f288882610ecb565b9750610f3383610ee3565b925050600181019050610f14565b5085935050505092915050565b60006020820190508181036000830152610f688184610ef0565b905092915050565b610f7981610d6c565b82525050565b6000602082019050610f946000830184610f70565b92915050565b6000610fa582610e05565b9050919050565b610fb581610f9a565b82525050565b6000602082019050610fd06000830184610fac565b92915050565b60008060408385031215610fed57610fec610d67565b5b6000610ffb85828601610e4e565b925050602061100c85828601610d8d565b9150509250929050565b600082825260208201905092915050565b7f526f6f6d206861736e2774206265656e20626f6f6b6564000000000000000000600082015250565b600061105d601783611016565b915061106882611027565b602082019050919050565b6000602082019050818103600083015261108c81611050565b9050919050565b7f526f6f6d20756e617661696c61626c6500000000000000000000000000000000600082015250565b60006110c9601083611016565b91506110d482611093565b602082019050919050565b600060208201905081810360008301526110f8816110bc565b9050919050565b7f4e487b7100000000000000000000000000000000000000000000000000000000600052603260045260246000fd5b7f496e73756666696369656e742046756e6420746f20636f6d706c65746520707560008201527f7263686173650000000000000000000000000000000000000000000000000000602082015250565b600061118a602683611016565b91506111958261112e565b604082019050919050565b600060208201905081810360008301526111b98161117d565b9050919050565b7f526f6f6d2068617320616c7265616479206265656e20626f6f6b656400000000600082015250565b60006111f6601c83611016565b9150611201826111c0565b602082019050919050565b60006020820190508181036000830152611225816111e9565b9050919050565b61123581610e25565b82525050565b6000819050919050565b600061126061125b61125684610e05565b61123b565b610e05565b9050919050565b600061127282611245565b9050919050565b600061128482611267565b9050919050565b61129481611279565b82525050565b60006060820190506112af600083018661122c565b6112bc602083018561128b565b6112c96040830184610f70565b949350505050565b7f4e487b7100000000000000000000000000000000000000000000000000000000600052601160045260246000fd5b600061130b82610d6c565b91507fffffffffffffffffffffffffffffffffffffffffffffffffffffffffffffffff82141561133e5761133d6112d1565b5b600182019050919050565b600061135482610d6c565b915061135f83610d6c565b9250827fffffffffffffffffffffffffffffffffffffffffffffffffffffffffffffffff03821115611394576113936112d1565b5b828201905092915050565b7f496e76616c696420726f6f6d206e756d62657220737065636966696564000000600082015250565b60006113d5601d83611016565b91506113e08261139f565b602082019050919050565b60006020820190508181036000830152611404816113c8565b9050919050565b600061141682610d6c565b915061142183610d6c565b925082821015611434576114336112d1565b5b828203905092915050565b6000606082019050611454600083018661128b565b611461602083018561122c565b61146e6040830184610f70565b949350505050565b7f43616e2774207472616e7366657220726f6f6d20746f20796f757273656c6600600082015250565b60006114ac601f83611016565b91506114b782611476565b602082019050919050565b600060208201905081810360008301526114db8161149f565b9050919050565b7f526f6f6d2069736e277420626f6f6b6564000000000000000000000000000000600082015250565b6000611518601183611016565b9150611523826114e2565b602082019050919050565b600060208201905081810360008301526115478161150b565b905091905056fea26469706673582212207f89fd8264c6b1c37537940fc5705f6831e1ab3978b5aed3275394c16adb6c7764736f6c634300080c0033",
  "immutableReferences": {},
  "source": "// SPDX-License-Identifier: GPL-3.0\r\npragma solidity ^0.8.12;\r\n\r\ncontract Hotel {\r\n    address payable public deployer;\r\n    uint256 maxRoomNumber;\r\n    uint256[] instanceOfOwnersRooms;\r\n    mapping(address => uint256[]) roomOwnedBy;\r\n    mapping(uint256 => uint256) timestamp;\r\n    uint256[] availableRoomsInstance;\r\n    uint256 price;\r\n    uint256[] availableRooms;\r\n    mapping(uint256 => bool) public booked;\r\n    struct hotelRoom {\r\n        uint256 hotelRoom;\r\n        uint256 roomPrice;\r\n    }\r\n    hotelRoom[] hotelRooms;\r\n    event Transfer(address _from, address _to, uint256 _amount);\r\n\r\n    constructor(uint256 _maxRoomNumber) {\r\n        require(_maxRoomNumber <= 20);\r\n        maxRoomNumber = _maxRoomNumber;\r\n        deployer = payable(msg.sender);\r\n        for (uint256 i = 1; i <= maxRoomNumber; i++) {\r\n            if (i < 5) {\r\n                price = 0.01 ether;\r\n            } else if (i >= 5 && i < 10) {\r\n                price = 0.02 ether;\r\n            } else if (i >= 10 && i < 15) {\r\n                price = 0.03 ether;\r\n            } else {\r\n                price = 0.04 ether;\r\n            }\r\n            hotelRooms.push(hotelRoom(i, price));\r\n            availableRooms.push(i);\r\n            booked[i] = false;\r\n        }\r\n    }\r\n\r\n    function viewAvailableRooms() public view returns (uint256[] memory) {\r\n        return availableRooms;\r\n    }\r\n\r\n    function bookRoom(uint256 _roomNumber) public payable returns (bool) {\r\n        require(\r\n            _roomNumber > 0 && _roomNumber <= hotelRooms.length,\r\n            \"Room unavailable\"\r\n        );\r\n        require(\r\n            msg.value >= hotelRooms[_roomNumber].roomPrice,\r\n            \"Insufficient Fund to complete purchase\"\r\n        );\r\n        require(booked[_roomNumber] == false, \"Room has already been booked\");\r\n        roomOwnedBy[msg.sender].push(_roomNumber);\r\n        booked[_roomNumber] = true;\r\n\r\n        // Emitting the transfer and doing th transfer\r\n        deployer.transfer(msg.value);\r\n        emit Transfer(msg.sender, deployer, msg.value);\r\n\r\n        // Removing room from available rooms\r\n        delete availableRoomsInstance;\r\n        for (uint256 i = 0; i < availableRooms.length; i++) {\r\n            if (availableRooms[i] != _roomNumber) {\r\n                availableRoomsInstance.push(availableRooms[i]);\r\n            }\r\n        }\r\n        availableRooms = availableRoomsInstance;\r\n\r\n        // Setting timestamp\r\n        timestamp[_roomNumber] = block.timestamp + 30 minutes;\r\n        return true;\r\n    }\r\n\r\n    function viewRoomPrice(uint256 _roomNumber) public view returns (uint256) {\r\n        require(\r\n            _roomNumber > 0 && _roomNumber <= maxRoomNumber,\r\n            \"Invalid room number specified\"\r\n        );\r\n        return hotelRooms[_roomNumber - 1].roomPrice;\r\n    }\r\n\r\n    function viewOwnedRoom(address _address)\r\n        public\r\n        view\r\n        returns (uint256[] memory)\r\n    {\r\n        return roomOwnedBy[_address];\r\n    }\r\n\r\n    function transferRoomOwnership(address _address, uint256 _roomNumber)\r\n        public\r\n        returns (bool)\r\n    {\r\n        require(_address != msg.sender, \"Can't transfer room to yourself\");\r\n        require(booked[_roomNumber] == true, \"Room isn't booked\");\r\n\r\n        for (uint256 i = 0; i < roomOwnedBy[msg.sender].length; i++) {\r\n            if (_roomNumber == roomOwnedBy[msg.sender][i]) {\r\n                // Removing rooms from the owner's rooms\r\n                delete instanceOfOwnersRooms;\r\n                roomOwnedBy[_address].push(_roomNumber);\r\n                for (uint256 j = 0; j < roomOwnedBy[msg.sender].length; j++) {\r\n                    if (_roomNumber != roomOwnedBy[msg.sender][j]) {\r\n                        instanceOfOwnersRooms.push(roomOwnedBy[msg.sender][j]);\r\n                    }\r\n                }\r\n                roomOwnedBy[msg.sender] = instanceOfOwnersRooms;\r\n            }\r\n        }\r\n        return true;\r\n    }\r\n\r\n    function viewTimeLeft(uint256 _roomNumber) public view returns (uint256) {\r\n        require(booked[_roomNumber] == true, \"Room hasn't been booked\");\r\n        return timestamp[_roomNumber];\r\n    }\r\n\r\n    function extendTime(uint256 _roomNumber) public payable {\r\n        require(booked[_roomNumber] == true, \"Room hasn't been booked\");\r\n\r\n        emit Transfer(deployer, msg.sender, msg.value);\r\n        deployer.transfer(msg.value);\r\n    }\r\n}\r\n",
  "sourcePath": "P:\\Web3 projects\\recap\\truffle\\contracts\\Hotel.sol",
  "compiler": {
    "name": "solc",
    "version": "0.8.12+commit.f00d7308.Emscripten.clang"
  },
  "schemaVersion": "3.4.6",
  "updatedAt": "2022-04-03T00:43:35.085Z",
  "devdoc": {
    "kind": "dev",
    "methods": {},
    "version": 1
  },
  "userdoc": {
    "kind": "user",
    "methods": {},
    "version": 1
  }
}