{
  "contractName": "Hotel",
  "abi": [
    {
      "inputs": [
        {
          "internalType": "uint256",
          "name": "_maxRoomNumber",
          "type": "uint256"
        }
      ],
      "stateMutability": "nonpayable",
      "type": "constructor"
    },
    {
      "anonymous": false,
      "inputs": [
        {
          "indexed": false,
          "internalType": "address",
          "name": "_from",
          "type": "address"
        },
        {
          "indexed": false,
          "internalType": "address",
          "name": "_to",
          "type": "address"
        },
        {
          "indexed": false,
          "internalType": "uint256",
          "name": "_amount",
          "type": "uint256"
        }
      ],
      "name": "Transfer",
      "type": "event"
    },
    {
      "inputs": [
        {
          "internalType": "uint256",
          "name": "",
          "type": "uint256"
        }
      ],
      "name": "booked",
      "outputs": [
        {
          "internalType": "bool",
          "name": "",
          "type": "bool"
        }
      ],
      "stateMutability": "view",
      "type": "function",
      "constant": true
    },
    {
      "inputs": [
        {
          "internalType": "address",
          "name": "",
          "type": "address"
        }
      ],
      "name": "loyaltyPoints",
      "outputs": [
        {
          "internalType": "uint256",
          "name": "",
          "type": "uint256"
        }
      ],
      "stateMutability": "view",
      "type": "function",
      "constant": true
    },
    {
      "inputs": [
        {
          "internalType": "uint256",
          "name": "",
          "type": "uint256"
        }
      ],
      "name": "roomOwner",
      "outputs": [
        {
          "internalType": "address",
          "name": "",
          "type": "address"
        }
      ],
      "stateMutability": "view",
      "type": "function",
      "constant": true
    },
    {
      "inputs": [
        {
          "internalType": "uint256",
          "name": "",
          "type": "uint256"
        }
      ],
      "name": "roomPrice",
      "outputs": [
        {
          "internalType": "uint256",
          "name": "",
          "type": "uint256"
        }
      ],
      "stateMutability": "view",
      "type": "function",
      "constant": true
    },
    {
      "inputs": [
        {
          "internalType": "uint256",
          "name": "_roomNumber",
          "type": "uint256"
        },
        {
          "internalType": "uint256",
          "name": "_period",
          "type": "uint256"
        }
      ],
      "name": "bookRoom",
      "outputs": [
        {
          "internalType": "bool",
          "name": "success",
          "type": "bool"
        }
      ],
      "stateMutability": "payable",
      "type": "function",
      "payable": true
    },
    {
      "inputs": [
        {
          "internalType": "address",
          "name": "_address",
          "type": "address"
        },
        {
          "internalType": "uint256",
          "name": "_roomNumber",
          "type": "uint256"
        }
      ],
      "name": "transferRoomOwnership",
      "outputs": [
        {
          "internalType": "bool",
          "name": "success",
          "type": "bool"
        }
      ],
      "stateMutability": "nonpayable",
      "type": "function"
    },
    {
      "inputs": [
        {
          "internalType": "uint256",
          "name": "_roomNumber",
          "type": "uint256"
        }
      ],
      "name": "viewTimeLeft",
      "outputs": [
        {
          "internalType": "uint256",
          "name": "",
          "type": "uint256"
        }
      ],
      "stateMutability": "view",
      "type": "function",
      "constant": true
    },
    {
      "inputs": [
        {
          "internalType": "uint256",
          "name": "_roomNumber",
          "type": "uint256"
        },
        {
          "internalType": "uint256",
          "name": "_period",
          "type": "uint256"
        }
      ],
      "name": "extendTime",
      "outputs": [
        {
          "internalType": "bool",
          "name": "success",
          "type": "bool"
        }
      ],
      "stateMutability": "payable",
      "type": "function",
      "payable": true
    },
    {
      "inputs": [],
      "name": "getDiscount",
      "outputs": [
        {
          "internalType": "uint256",
          "name": "",
          "type": "uint256"
        }
      ],
      "stateMutability": "nonpayable",
      "type": "function"
    },
    {
      "inputs": [
        {
          "internalType": "uint256",
          "name": "_discountToken",
          "type": "uint256"
        },
        {
          "internalType": "uint256",
          "name": "_roomNumber",
          "type": "uint256"
        },
        {
          "internalType": "uint256",
          "name": "_period",
          "type": "uint256"
        }
      ],
      "name": "bookWithDiscount",
      "outputs": [
        {
          "internalType": "bool",
          "name": "success",
          "type": "bool"
        }
      ],
      "stateMutability": "payable",
      "type": "function",
      "payable": true
    },
    {
      "inputs": [
        {
          "internalType": "uint256",
          "name": "_roomNumber",
          "type": "uint256"
        }
      ],
      "name": "makeRoomAvilable",
      "outputs": [],
      "stateMutability": "nonpayable",
      "type": "function"
    }
  ],
  "bytecode": "0x60806040523480156200001157600080fd5b5060405162001ab338038062001ab3833981810160405281019062000037919062000258565b60148111156200004657600080fd5b8060008190555033600160006101000a81548173ffffffffffffffffffffffffffffffffffffffff021916908373ffffffffffffffffffffffffffffffffffffffff1602179055506000600190505b600054811162000210576005811015620000e757662386f26fc10000600760008381526020019081526020016000208190555060036008600083815260200190815260200160002081905550620001ce565b60058110158015620000f95750600a81105b156200013d5766470de4df820000600760008381526020019081526020016000208190555060076008600083815260200190815260200160002081905550620001cd565b600a81101580156200014f5750600f81105b156200019357666a94d74f4300006007600083815260200190815260200160002081905550600c6008600083815260200190815260200160002081905550620001cc565b668e1bc9bf0400006007600083815260200190815260200160002081905550600f60086000838152602001908152602001600020819055505b5b5b60006004600083815260200190815260200160002060006101000a81548160ff02191690831515021790555080806200020790620002b9565b91505062000095565b505062000307565b600080fd5b6000819050919050565b62000232816200021d565b81146200023e57600080fd5b50565b600081519050620002528162000227565b92915050565b60006020828403121562000271576200027062000218565b5b6000620002818482850162000241565b91505092915050565b7f4e487b7100000000000000000000000000000000000000000000000000000000600052601160045260246000fd5b6000620002c6826200021d565b91507fffffffffffffffffffffffffffffffffffffffffffffffffffffffffffffffff821415620002fc57620002fb6200028a565b5b600182019050919050565b61179c80620003176000396000f3fe60806040526004361061009c5760003560e01c80638a3a1a18116100645780638a3a1a18146101c5578063d137874b146101f5578063d45e425914610220578063f7ccc1841461025d578063f8d917ed1461028d578063fcc5d480146102ca5761009c565b8063129d8e68146100a157806332eb2206146100de578063354da17b1461010e5780634b7699cf1461014b57806380fbf58314610188575b600080fd5b3480156100ad57600080fd5b506100c860048036038101906100c39190610f8e565b6102f3565b6040516100d59190610fd6565b60405180910390f35b6100f860048036038101906100f39190610ff1565b610313565b6040516101059190610fd6565b60405180910390f35b34801561011a57600080fd5b5061013560048036038101906101309190610f8e565b6106a6565b6040516101429190611085565b60405180910390f35b34801561015757600080fd5b50610172600480360381019061016d9190610f8e565b6106d9565b60405161017f91906110af565b60405180910390f35b34801561019457600080fd5b506101af60048036038101906101aa9190610f8e565b6106f6565b6040516101bc91906110af565b60405180910390f35b6101df60048036038101906101da91906110ca565b61070e565b6040516101ec9190610fd6565b60405180910390f35b34801561020157600080fd5b5061020a610a34565b60405161021791906110af565b60405180910390f35b34801561022c57600080fd5b5061024760048036038101906102429190611136565b610b7f565b60405161025491906110af565b60405180910390f35b610277600480360381019061027291906110ca565b610b97565b6040516102849190610fd6565b60405180910390f35b34801561029957600080fd5b506102b460048036038101906102af9190611163565b610cf2565b6040516102c19190610fd6565b60405180910390f35b3480156102d657600080fd5b506102f160048036038101906102ec9190610f8e565b610df1565b005b60046020528060005260406000206000915054906101000a900460ff1681565b600083600360003373ffffffffffffffffffffffffffffffffffffffff1673ffffffffffffffffffffffffffffffffffffffff16815260200190815260200160002054148015610364575060008414155b6103a3576040517f08c379a000000000000000000000000000000000000000000000000000000000815260040161039a90611200565b60405180910390fd5b6000831180156103b557506000548311155b6103f4576040517f08c379a00000000000000000000000000000000000000000000000000000000081526004016103eb9061126c565b60405180910390fd5b600a60096007600086815260200190815260200160002054601e8561041991906112ea565b610423919061131b565b61042d919061131b565b61043791906112ea565b341015610479576040517f08c379a0000000000000000000000000000000000000000000000000000000008152600401610470906113e7565b60405180910390fd5b600015156004600085815260200190815260200160002060009054906101000a900460ff161515146104e0576040517f08c379a00000000000000000000000000000000000000000000000000000000081526004016104d790611453565b60405180910390fd5b6000600360003373ffffffffffffffffffffffffffffffffffffffff1673ffffffffffffffffffffffffffffffffffffffff1681526020019081526020016000208190555060016004600085815260200190815260200160002060006101000a81548160ff021916908315150217905550336006600085815260200190815260200160002060006101000a81548173ffffffffffffffffffffffffffffffffffffffff021916908373ffffffffffffffffffffffffffffffffffffffff160217905550600160009054906101000a900473ffffffffffffffffffffffffffffffffffffffff1673ffffffffffffffffffffffffffffffffffffffff166108fc349081150290604051600060405180830381858888f1935050505015801561060b573d6000803e3d6000fd5b507fddf252ad1be2c89b69c2b068fc378daa952ba7f163c4a11628f55a4df523b3ef33600160009054906101000a900473ffffffffffffffffffffffffffffffffffffffff1634604051610661939291906114d2565b60405180910390a1603c82610676919061131b565b915081426106849190611509565b6002600085815260200190815260200160002081905550600190509392505050565b60066020528060005260406000206000915054906101000a900473ffffffffffffffffffffffffffffffffffffffff1681565b600060026000838152602001908152602001600020549050919050565b60076020528060005260406000206000915090505481565b6000808311801561072157506000548311155b610760576040517f08c379a00000000000000000000000000000000000000000000000000000000081526004016107579061126c565b60405180910390fd5b6007600084815260200190815260200160002054601e8361078191906112ea565b61078b919061131b565b3410156107cd576040517f08c379a00000000000000000000000000000000000000000000000000000000081526004016107c4906113e7565b60405180910390fd5b600015156004600085815260200190815260200160002060009054906101000a900460ff16151514610834576040517f08c379a000000000000000000000000000000000000000000000000000000000815260040161082b90611453565b60405180910390fd5b60016004600085815260200190815260200160002060006101000a81548160ff021916908315150217905550336006600085815260200190815260200160002060006101000a81548173ffffffffffffffffffffffffffffffffffffffff021916908373ffffffffffffffffffffffffffffffffffffffff160217905550600160009054906101000a900473ffffffffffffffffffffffffffffffffffffffff1673ffffffffffffffffffffffffffffffffffffffff166108fc349081150290604051600060405180830381858888f1935050505015801561091a573d6000803e3d6000fd5b507fddf252ad1be2c89b69c2b068fc378daa952ba7f163c4a11628f55a4df523b3ef33600160009054906101000a900473ffffffffffffffffffffffffffffffffffffffff1634604051610970939291906114d2565b60405180910390a16008600084815260200190815260200160002054601e8361099991906112ea565b6109a3919061131b565b600560003373ffffffffffffffffffffffffffffffffffffffff1673ffffffffffffffffffffffffffffffffffffffff16815260200190815260200160002060008282546109f19190611509565b92505081905550603c82610a05919061131b565b91508142610a139190611509565b60026000858152602001908152602001600020819055506001905092915050565b600060c8600560003373ffffffffffffffffffffffffffffffffffffffff1673ffffffffffffffffffffffffffffffffffffffff168152602001908152602001600020541015610ab9576040517f08c379a0000000000000000000000000000000000000000000000000000000008152600401610ab0906115ab565b60405180910390fd5b6000629896807f49c053552eae2587348d8f98a617dc34420bc53dce287a6c6099b60672779e7760001c610aed91906115cb565b905080600360003373ffffffffffffffffffffffffffffffffffffffff1673ffffffffffffffffffffffffffffffffffffffff168152602001908152602001600020819055506000600560003373ffffffffffffffffffffffffffffffffffffffff1673ffffffffffffffffffffffffffffffffffffffff168152602001908152602001600020819055508091505090565b60056020528060005260406000206000915090505481565b60003373ffffffffffffffffffffffffffffffffffffffff166006600085815260200190815260200160002060009054906101000a900473ffffffffffffffffffffffffffffffffffffffff1673ffffffffffffffffffffffffffffffffffffffff1614610c0457600080fd5b34662386f26fc10000601e84610c1a91906112ea565b610c24919061131b565b1115610c2f57600080fd5b6008600084815260200190815260200160002054601e83610c5091906112ea565b610c5a919061131b565b600560003373ffffffffffffffffffffffffffffffffffffffff1673ffffffffffffffffffffffffffffffffffffffff1681526020019081526020016000206000828254610ca89190611509565b92505081905550603c82610cbc919061131b565b915081600260008581526020019081526020016000206000828254610ce19190611509565b925050819055506001905092915050565b60003373ffffffffffffffffffffffffffffffffffffffff166006600084815260200190815260200160002060009054906101000a900473ffffffffffffffffffffffffffffffffffffffff1673ffffffffffffffffffffffffffffffffffffffff1614610d95576040517f08c379a0000000000000000000000000000000000000000000000000000000008152600401610d8c9061166e565b60405180910390fd5b826006600084815260200190815260200160002060006101000a81548173ffffffffffffffffffffffffffffffffffffffff021916908373ffffffffffffffffffffffffffffffffffffffff1602179055506001905092915050565b6002600082815260200190815260200160002054421015610e47576040517f08c379a0000000000000000000000000000000000000000000000000000000008152600401610e3e906116da565b60405180910390fd5b600160009054906101000a900473ffffffffffffffffffffffffffffffffffffffff1673ffffffffffffffffffffffffffffffffffffffff163373ffffffffffffffffffffffffffffffffffffffff1614610ed7576040517f08c379a0000000000000000000000000000000000000000000000000000000008152600401610ece90611746565b60405180910390fd5b60006004600083815260200190815260200160002060006101000a81548160ff02191690831515021790555060026000828152602001908152602001600020600090556006600082815260200190815260200160002060006101000a81549073ffffffffffffffffffffffffffffffffffffffff021916905550565b600080fd5b6000819050919050565b610f6b81610f58565b8114610f7657600080fd5b50565b600081359050610f8881610f62565b92915050565b600060208284031215610fa457610fa3610f53565b5b6000610fb284828501610f79565b91505092915050565b60008115159050919050565b610fd081610fbb565b82525050565b6000602082019050610feb6000830184610fc7565b92915050565b60008060006060848603121561100a57611009610f53565b5b600061101886828701610f79565b935050602061102986828701610f79565b925050604061103a86828701610f79565b9150509250925092565b600073ffffffffffffffffffffffffffffffffffffffff82169050919050565b600061106f82611044565b9050919050565b61107f81611064565b82525050565b600060208201905061109a6000830184611076565b92915050565b6110a981610f58565b82525050565b60006020820190506110c460008301846110a0565b92915050565b600080604083850312156110e1576110e0610f53565b5b60006110ef85828601610f79565b925050602061110085828601610f79565b9150509250929050565b61111381611064565b811461111e57600080fd5b50565b6000813590506111308161110a565b92915050565b60006020828403121561114c5761114b610f53565b5b600061115a84828501611121565b91505092915050565b6000806040838503121561117a57611179610f53565b5b600061118885828601611121565b925050602061119985828601610f79565b9150509250929050565b600082825260208201905092915050565b7f556e7265636f676e697a656420746f6b656e0000000000000000000000000000600082015250565b60006111ea6012836111a3565b91506111f5826111b4565b602082019050919050565b60006020820190508181036000830152611219816111dd565b9050919050565b7f526f6f6d20756e617661696c61626c6500000000000000000000000000000000600082015250565b60006112566010836111a3565b915061126182611220565b602082019050919050565b6000602082019050818103600083015261128581611249565b9050919050565b7f4e487b7100000000000000000000000000000000000000000000000000000000600052601260045260246000fd5b7f4e487b7100000000000000000000000000000000000000000000000000000000600052601160045260246000fd5b60006112f582610f58565b915061130083610f58565b9250826113105761130f61128c565b5b828204905092915050565b600061132682610f58565b915061133183610f58565b9250817fffffffffffffffffffffffffffffffffffffffffffffffffffffffffffffffff048311821515161561136a576113696112bb565b5b828202905092915050565b7f496e73756666696369656e742046756e6420746f20636f6d706c65746520707560008201527f7263686173650000000000000000000000000000000000000000000000000000602082015250565b60006113d16026836111a3565b91506113dc82611375565b604082019050919050565b60006020820190508181036000830152611400816113c4565b9050919050565b7f526f6f6d2068617320616c7265616479206265656e20626f6f6b656400000000600082015250565b600061143d601c836111a3565b915061144882611407565b602082019050919050565b6000602082019050818103600083015261146c81611430565b9050919050565b6000819050919050565b600061149861149361148e84611044565b611473565b611044565b9050919050565b60006114aa8261147d565b9050919050565b60006114bc8261149f565b9050919050565b6114cc816114b1565b82525050565b60006060820190506114e76000830186611076565b6114f460208301856114c3565b61150160408301846110a0565b949350505050565b600061151482610f58565b915061151f83610f58565b9250827fffffffffffffffffffffffffffffffffffffffffffffffffffffffffffffffff03821115611554576115536112bb565b5b828201905092915050565b7f4e6f7420656e6f756768206c6f79616c7479506f696e74730000000000000000600082015250565b60006115956018836111a3565b91506115a08261155f565b602082019050919050565b600060208201905081810360008301526115c481611588565b9050919050565b60006115d682610f58565b91506115e183610f58565b9250826115f1576115f061128c565b5b828206905092915050565b7f43616e2774207472616e73666572207468617420646f65736e27742062656c6f60008201527f6e6720746f20796f750000000000000000000000000000000000000000000000602082015250565b60006116586029836111a3565b9150611663826115fc565b604082019050919050565b600060208201905081810360008301526116878161164b565b9050919050565b7f53657373696f6e206e6f74206578706972656400000000000000000000000000600082015250565b60006116c46013836111a3565b91506116cf8261168e565b602082019050919050565b600060208201905081810360008301526116f3816116b7565b9050919050565b7f5265737472696374656420746f204465706c6f796572206f6e6c790000000000600082015250565b6000611730601b836111a3565b915061173b826116fa565b602082019050919050565b6000602082019050818103600083015261175f81611723565b905091905056fea2646970667358221220d23d2a57a74d5e27ec2a12d68fd30558b0214eab2b003cdc35a00295085b1d5364736f6c634300080c0033",
  "immutableReferences": {},
  "source": "// SPDX-License-Identifier:MIT\r\npragma solidity ^0.8.12;\r\n\r\ncontract Hotel {\r\n    uint256 maxRoomNumber;\r\n    address payable  deployer;\r\n    mapping(uint256 => uint256)  timestamp;\r\n    mapping(address => uint256)  discountToken;\r\n    mapping(uint256 => bool) public booked;\r\n    mapping(address => uint256) public loyaltyPoints;\r\n    mapping(uint256 => address) public roomOwner;\r\n    mapping(uint256 => uint256) public roomPrice;\r\n    mapping(uint256 => uint256) internal roomLoyaltyPoints;\r\n\r\n    constructor(uint256 _maxRoomNumber) {\r\n        require(_maxRoomNumber <= 20);\r\n        maxRoomNumber = _maxRoomNumber;\r\n        deployer = payable(msg.sender);\r\n        for (uint256 i = 1; i <= maxRoomNumber; i++) {\r\n            if (i < 5) {\r\n                roomPrice[i] = 0.01 ether;\r\n                roomLoyaltyPoints[i] = 3;\r\n            } else if (i >= 5 && i < 10) {\r\n                roomPrice[i] = 0.02 ether;\r\n                roomLoyaltyPoints[i] = 7;\r\n            } else if (i >= 10 && i < 15) {\r\n                roomPrice[i] = 0.03 ether;\r\n                roomLoyaltyPoints[i] = 12;\r\n            } else {\r\n                roomPrice[i] = 0.04 ether;\r\n                roomLoyaltyPoints[i] = 15;\r\n            }\r\n            booked[i] = false;\r\n        }\r\n    }\r\n\r\n    event Transfer(address _from, address _to, uint256 _amount);\r\n\r\n    function bookRoom(uint256 _roomNumber, uint256 _period) public payable returns(bool success) {\r\n        require(\r\n            _roomNumber > 0 && _roomNumber <= maxRoomNumber,\r\n            \"Room unavailable\"\r\n        );\r\n        require(\r\n            msg.value >= (_period / 30) * roomPrice[_roomNumber],\r\n            \"Insufficient Fund to complete purchase\"\r\n        );\r\n        require(booked[_roomNumber] == false, \"Room has already been booked\");\r\n\r\n        booked[_roomNumber] = true;\r\n        roomOwner[_roomNumber] = msg.sender;\r\n\r\n        // Emitting the transfer and doing th transfer\r\n        deployer.transfer(msg.value);\r\n        emit Transfer(msg.sender, deployer, msg.value);\r\n\r\n        // Setting loyaltyPoints\r\n        loyaltyPoints[msg.sender] +=\r\n            (_period / 30) *\r\n            roomLoyaltyPoints[_roomNumber];\r\n\r\n        // Setting timestamp\r\n\r\n        _period = _period * 60;\r\n        timestamp[_roomNumber] = block.timestamp + _period;\r\n\r\n        return true;\r\n    }\r\n\r\n    function transferRoomOwnership(address _address, uint256 _roomNumber)\r\n        public returns(bool success)\r\n    {\r\n        require(roomOwner[_roomNumber] == msg.sender , \"Can't transfer that doesn't belong to you\");\r\n        roomOwner[_roomNumber] = _address;\r\n        return true;\r\n    }\r\n\r\n    function viewTimeLeft(uint256 _roomNumber) view public returns (uint256) {\r\n        return timestamp[_roomNumber];\r\n    }\r\n\r\n    function extendTime(uint256 _roomNumber, uint256 _period) public payable returns(bool success) {\r\n        require(roomOwner[_roomNumber] == msg.sender);\r\n        require((_period / 30) * 0.01 ether <= msg.value);\r\n        // Setting loyaltyPoints\r\n        loyaltyPoints[msg.sender] +=\r\n            (_period / 30) *\r\n            roomLoyaltyPoints[_roomNumber];\r\n\r\n        _period = _period * 60;\r\n        timestamp[_roomNumber] += _period;\r\n        return true;\r\n    }\r\n\r\n    function getDiscount() public  returns (uint256) {\r\n        require(loyaltyPoints[msg.sender] >= 200, \"Not enough loyaltyPoints\");\r\n        uint256 token = uint256(keccak256(\"grabtoken\")) % 10000000;\r\n        discountToken[msg.sender] = token;\r\n        loyaltyPoints[msg.sender] = 0;\r\n        return token;\r\n    }\r\n\r\n    function bookWithDiscount(\r\n        uint256 _discountToken,\r\n        uint256 _roomNumber,\r\n        uint256 _period\r\n    ) public payable returns (bool success){\r\n        require(\r\n            discountToken[msg.sender] == _discountToken && _discountToken != 0,\r\n            \"Unrecognized token\"\r\n        );\r\n        require(\r\n            _roomNumber > 0 && _roomNumber <= maxRoomNumber,\r\n            \"Room unavailable\"\r\n        );\r\n        require(\r\n            // 10% percent off as discount\r\n            msg.value >= (((_period / 30) * roomPrice[_roomNumber]) * 9) / 10,\r\n            \"Insufficient Fund to complete purchase\"\r\n        );\r\n        require(booked[_roomNumber] == false, \"Room has already been booked\");\r\n        discountToken[msg.sender] = 0;\r\n        //  When claiming a discount no loyalty points are added\r\n\r\n        booked[_roomNumber] = true;\r\n        roomOwner[_roomNumber] = msg.sender;\r\n\r\n        // Emitting the transfer and doing th transfer\r\n        deployer.transfer(msg.value);\r\n        emit Transfer(msg.sender, deployer, msg.value);\r\n\r\n        // Setting timestamp\r\n        _period = _period * 60;\r\n        timestamp[_roomNumber] = block.timestamp + _period;\r\n\r\n        return true;\r\n    }\r\n    function makeRoomAvilable(uint _roomNumber) public {\r\n        require(block.timestamp  >= timestamp[_roomNumber] , \"Session not expired\");\r\n        require(msg.sender == deployer , \"Restricted to Deployer only\");\r\n        booked[_roomNumber] = false;\r\n        delete timestamp[_roomNumber];\r\n        delete roomOwner[_roomNumber];\r\n    }\r\n}\r\n",
  "sourcePath": "P:\\Web3 projects\\recap\\truffle\\contracts\\Hotel.sol",
  "compiler": {
    "name": "solc",
    "version": "0.8.12+commit.f00d7308.Emscripten.clang"
  },
  "schemaVersion": "3.4.6",
  "updatedAt": "2022-04-05T20:14:19.774Z",
  "networkType": "ethereum",
  "devdoc": {
    "kind": "dev",
    "methods": {},
    "version": 1
  },
  "userdoc": {
    "kind": "user",
    "methods": {},
    "version": 1
  }
}