{
  "contractName": "Hotel",
  "abi": [
    {
      "inputs": [
        {
          "internalType": "uint256",
          "name": "_maxRoomNumber",
          "type": "uint256"
        }
      ],
      "stateMutability": "nonpayable",
      "type": "constructor"
    },
    {
      "anonymous": false,
      "inputs": [
        {
          "indexed": false,
          "internalType": "address",
          "name": "_from",
          "type": "address"
        },
        {
          "indexed": false,
          "internalType": "address",
          "name": "_to",
          "type": "address"
        },
        {
          "indexed": false,
          "internalType": "uint256",
          "name": "_amount",
          "type": "uint256"
        }
      ],
      "name": "Transfer",
      "type": "event"
    },
    {
      "inputs": [
        {
          "internalType": "uint256",
          "name": "",
          "type": "uint256"
        }
      ],
      "name": "blockTimestamp",
      "outputs": [
        {
          "internalType": "uint256",
          "name": "",
          "type": "uint256"
        }
      ],
      "stateMutability": "view",
      "type": "function"
    },
    {
      "inputs": [
        {
          "internalType": "uint256",
          "name": "",
          "type": "uint256"
        }
      ],
      "name": "booked",
      "outputs": [
        {
          "internalType": "bool",
          "name": "",
          "type": "bool"
        }
      ],
      "stateMutability": "view",
      "type": "function"
    },
    {
      "inputs": [],
      "name": "deployer",
      "outputs": [
        {
          "internalType": "address payable",
          "name": "",
          "type": "address"
        }
      ],
      "stateMutability": "view",
      "type": "function"
    },
    {
      "inputs": [
        {
          "internalType": "address",
          "name": "",
          "type": "address"
        }
      ],
      "name": "discountToken",
      "outputs": [
        {
          "internalType": "uint256",
          "name": "",
          "type": "uint256"
        }
      ],
      "stateMutability": "view",
      "type": "function"
    },
    {
      "inputs": [
        {
          "internalType": "address",
          "name": "",
          "type": "address"
        }
      ],
      "name": "loyaltyPoints",
      "outputs": [
        {
          "internalType": "uint256",
          "name": "",
          "type": "uint256"
        }
      ],
      "stateMutability": "view",
      "type": "function"
    },
    {
      "inputs": [
        {
          "internalType": "uint256",
          "name": "",
          "type": "uint256"
        }
      ],
      "name": "roomLoyaltyPoints",
      "outputs": [
        {
          "internalType": "uint256",
          "name": "",
          "type": "uint256"
        }
      ],
      "stateMutability": "view",
      "type": "function"
    },
    {
      "inputs": [
        {
          "internalType": "uint256",
          "name": "",
          "type": "uint256"
        }
      ],
      "name": "roomOwner",
      "outputs": [
        {
          "internalType": "address",
          "name": "",
          "type": "address"
        }
      ],
      "stateMutability": "view",
      "type": "function"
    },
    {
      "inputs": [
        {
          "internalType": "uint256",
          "name": "",
          "type": "uint256"
        }
      ],
      "name": "roomPrice",
      "outputs": [
        {
          "internalType": "uint256",
          "name": "",
          "type": "uint256"
        }
      ],
      "stateMutability": "view",
      "type": "function"
    },
    {
      "inputs": [
        {
          "internalType": "uint256",
          "name": "_roomNumber",
          "type": "uint256"
        },
        {
          "internalType": "uint256",
          "name": "_period",
          "type": "uint256"
        }
      ],
      "name": "bookRoom",
      "outputs": [],
      "stateMutability": "payable",
      "type": "function"
    },
    {
      "inputs": [
        {
          "internalType": "address",
          "name": "_address",
          "type": "address"
        },
        {
          "internalType": "uint256",
          "name": "_roomNumber",
          "type": "uint256"
        }
      ],
      "name": "transferRoomOwnership",
      "outputs": [],
      "stateMutability": "nonpayable",
      "type": "function"
    },
    {
      "inputs": [
        {
          "internalType": "uint256",
          "name": "_roomNumber",
          "type": "uint256"
        }
      ],
      "name": "viewTimeLeft",
      "outputs": [
        {
          "internalType": "uint256",
          "name": "",
          "type": "uint256"
        }
      ],
      "stateMutability": "nonpayable",
      "type": "function"
    },
    {
      "inputs": [
        {
          "internalType": "uint256",
          "name": "_roomNumber",
          "type": "uint256"
        },
        {
          "internalType": "uint256",
          "name": "_period",
          "type": "uint256"
        }
      ],
      "name": "extendTime",
      "outputs": [],
      "stateMutability": "payable",
      "type": "function"
    },
    {
      "inputs": [],
      "name": "getDiscount",
      "outputs": [
        {
          "internalType": "uint256",
          "name": "",
          "type": "uint256"
        }
      ],
      "stateMutability": "payable",
      "type": "function"
    },
    {
      "inputs": [
        {
          "internalType": "uint256",
          "name": "_discountToken",
          "type": "uint256"
        },
        {
          "internalType": "uint256",
          "name": "_roomNumber",
          "type": "uint256"
        },
        {
          "internalType": "uint256",
          "name": "_period",
          "type": "uint256"
        }
      ],
      "name": "bookWithDiscount",
      "outputs": [],
      "stateMutability": "payable",
      "type": "function"
    }
  ],
  "bytecode": "0x60806040523480156200001157600080fd5b506040516200192f3803806200192f833981810160405281019062000037919062000257565b60148111156200004657600080fd5b80600381905550336000806101000a81548173ffffffffffffffffffffffffffffffffffffffff021916908373ffffffffffffffffffffffffffffffffffffffff1602179055506000600190505b60035481116200020f576005811015620000e657662386f26fc10000600860008381526020019081526020016000208190555060036009600083815260200190815260200160002081905550620001cd565b60058110158015620000f85750600a81105b156200013c5766470de4df820000600860008381526020019081526020016000208190555060076009600083815260200190815260200160002081905550620001cc565b600a81101580156200014e5750600f81105b156200019257666a94d74f4300006008600083815260200190815260200160002081905550600c6009600083815260200190815260200160002081905550620001cb565b668e1bc9bf0400006008600083815260200190815260200160002081905550600f60096000838152602001908152602001600020819055505b5b5b60006004600083815260200190815260200160002060006101000a81548160ff02191690831515021790555080806200020690620002b8565b91505062000094565b505062000306565b600080fd5b6000819050919050565b62000231816200021c565b81146200023d57600080fd5b50565b600081519050620002518162000226565b92915050565b60006020828403121562000270576200026f62000217565b5b6000620002808482850162000240565b91505092915050565b7f4e487b7100000000000000000000000000000000000000000000000000000000600052601160045260246000fd5b6000620002c5826200021c565b91507fffffffffffffffffffffffffffffffffffffffffffffffffffffffffffffffff821415620002fb57620002fa62000289565b5b600182019050919050565b61161980620003166000396000f3fe6080604052600436106100dd5760003560e01c80638a3a1a181161007f578063d45e425911610059578063d45e4259146102e3578063d5f3948814610320578063f7ccc1841461034b578063f8d917ed14610367576100dd565b80638a3a1a181461026c578063c2f7e47014610288578063d137874b146102c5576100dd565b80634b7699cf116100bb5780634b7699cf1461017857806373d8903b146101b557806379cbc78d146101f257806380fbf5831461022f576100dd565b8063129d8e68146100e257806332eb22061461011f578063354da17b1461013b575b600080fd5b3480156100ee57600080fd5b5061010960048036038101906101049190610f39565b610390565b6040516101169190610f81565b60405180910390f35b61013960048036038101906101349190610f9c565b6103b0565b005b34801561014757600080fd5b50610162600480360381019061015d9190610f39565b61074c565b60405161016f9190611030565b60405180910390f35b34801561018457600080fd5b5061019f600480360381019061019a9190610f39565b61077f565b6040516101ac919061105a565b60405180910390f35b3480156101c157600080fd5b506101dc60048036038101906101d79190610f39565b6107d0565b6040516101e9919061105a565b60405180910390f35b3480156101fe57600080fd5b50610219600480360381019061021491906110a1565b6107e8565b604051610226919061105a565b60405180910390f35b34801561023b57600080fd5b5061025660048036038101906102519190610f39565b610800565b604051610263919061105a565b60405180910390f35b610286600480360381019061028191906110ce565b610818565b005b34801561029457600080fd5b506102af60048036038101906102aa9190610f39565b610b4b565b6040516102bc919061105a565b60405180910390f35b6102cd610b63565b6040516102da919061105a565b60405180910390f35b3480156102ef57600080fd5b5061030a600480360381019061030591906110a1565b610cae565b604051610317919061105a565b60405180910390f35b34801561032c57600080fd5b50610335610cc6565b604051610342919061112f565b60405180910390f35b610365600480360381019061036091906110ce565b610cea565b005b34801561037357600080fd5b5061038e6004803603810190610389919061114a565b610e3d565b005b60046020528060005260406000206000915054906101000a900460ff1681565b82600260003373ffffffffffffffffffffffffffffffffffffffff1673ffffffffffffffffffffffffffffffffffffffff168152602001908152602001600020541480156103ff575060008314155b61043e576040517f08c379a0000000000000000000000000000000000000000000000000000000008152600401610435906111e7565b60405180910390fd5b60008211801561045057506003548211155b61048f576040517f08c379a000000000000000000000000000000000000000000000000000000000815260040161048690611253565b60405180910390fd5b600a600880600085815260200190815260200160002054601e846104b391906112d1565b6104bd9190611302565b6104c79190611302565b6104d191906112d1565b341015610513576040517f08c379a000000000000000000000000000000000000000000000000000000000815260040161050a906113ce565b60405180910390fd5b600015156004600084815260200190815260200160002060009054906101000a900460ff1615151461057a576040517f08c379a00000000000000000000000000000000000000000000000000000000081526004016105719061143a565b60405180910390fd5b6000600260003373ffffffffffffffffffffffffffffffffffffffff1673ffffffffffffffffffffffffffffffffffffffff168152602001908152602001600020505060016004600084815260200190815260200160002060006101000a81548160ff021916908315150217905550336006600084815260200190815260200160002060006101000a81548173ffffffffffffffffffffffffffffffffffffffff021916908373ffffffffffffffffffffffffffffffffffffffff16021790555060008054906101000a900473ffffffffffffffffffffffffffffffffffffffff1673ffffffffffffffffffffffffffffffffffffffff166108fc349081150290604051600060405180830381858888f193505050501580156106a1573d6000803e3d6000fd5b507fddf252ad1be2c89b69c2b068fc378daa952ba7f163c4a11628f55a4df523b3ef3360008054906101000a900473ffffffffffffffffffffffffffffffffffffffff16346040516106f5939291906114b9565b60405180910390a1603c8161070a9190611302565b9050804261071891906114f0565b6007600084815260200190815260200160002081905550426001600084815260200190815260200160002081905550505050565b60066020528060005260406000206000915054906101000a900473ffffffffffffffffffffffffffffffffffffffff1681565b600060016004600084815260200190815260200160002060006101000a81548160ff02191690831515021790556107b557600080fd5b60076000838152602001908152602001600020549050919050565b60016020528060005260406000206000915090505481565b60026020528060005260406000206000915090505481565b60086020528060005260406000206000915090505481565b60008211801561082a57506003548211155b610869576040517f08c379a000000000000000000000000000000000000000000000000000000000815260040161086090611253565b60405180910390fd5b6008600083815260200190815260200160002054601e8261088a91906112d1565b6108949190611302565b3410156108d6576040517f08c379a00000000000000000000000000000000000000000000000000000000081526004016108cd906113ce565b60405180910390fd5b600015156004600084815260200190815260200160002060009054906101000a900460ff1615151461093d576040517f08c379a00000000000000000000000000000000000000000000000000000000081526004016109349061143a565b60405180910390fd5b60016004600084815260200190815260200160002060006101000a81548160ff021916908315150217905550336006600084815260200190815260200160002060006101000a81548173ffffffffffffffffffffffffffffffffffffffff021916908373ffffffffffffffffffffffffffffffffffffffff16021790555060008054906101000a900473ffffffffffffffffffffffffffffffffffffffff1673ffffffffffffffffffffffffffffffffffffffff166108fc349081150290604051600060405180830381858888f19350505050158015610a21573d6000803e3d6000fd5b507fddf252ad1be2c89b69c2b068fc378daa952ba7f163c4a11628f55a4df523b3ef3360008054906101000a900473ffffffffffffffffffffffffffffffffffffffff1634604051610a75939291906114b9565b60405180910390a16009600083815260200190815260200160002054601e82610a9e91906112d1565b610aa89190611302565b600560003373ffffffffffffffffffffffffffffffffffffffff1673ffffffffffffffffffffffffffffffffffffffff1681526020019081526020016000206000828254610af691906114f0565b92505081905550603c81610b0a9190611302565b90508042610b1891906114f0565b60076000848152602001908152602001600020819055504260016000848152602001908152602001600020819055505050565b60096020528060005260406000206000915090505481565b600060c8600560003373ffffffffffffffffffffffffffffffffffffffff1673ffffffffffffffffffffffffffffffffffffffff168152602001908152602001600020541015610be8576040517f08c379a0000000000000000000000000000000000000000000000000000000008152600401610bdf90611592565b60405180910390fd5b6000629896807f49c053552eae2587348d8f98a617dc34420bc53dce287a6c6099b60672779e7760001c610c1c91906115b2565b905080600260003373ffffffffffffffffffffffffffffffffffffffff1673ffffffffffffffffffffffffffffffffffffffff168152602001908152602001600020819055506000600560003373ffffffffffffffffffffffffffffffffffffffff1673ffffffffffffffffffffffffffffffffffffffff168152602001908152602001600020819055508091505090565b60056020528060005260406000206000915090505481565b60008054906101000a900473ffffffffffffffffffffffffffffffffffffffff1681565b3373ffffffffffffffffffffffffffffffffffffffff166006600084815260200190815260200160002060009054906101000a900473ffffffffffffffffffffffffffffffffffffffff1673ffffffffffffffffffffffffffffffffffffffff1614610d5557600080fd5b34662386f26fc10000601e83610d6b91906112d1565b610d759190611302565b1115610d8057600080fd5b6009600083815260200190815260200160002054601e82610da191906112d1565b610dab9190611302565b600560003373ffffffffffffffffffffffffffffffffffffffff1673ffffffffffffffffffffffffffffffffffffffff1681526020019081526020016000206000828254610df991906114f0565b92505081905550603c81610e0d9190611302565b905080600760008481526020019081526020016000206000828254610e3291906114f0565b925050819055505050565b3373ffffffffffffffffffffffffffffffffffffffff166006600083815260200190815260200160002060009054906101000a900473ffffffffffffffffffffffffffffffffffffffff1673ffffffffffffffffffffffffffffffffffffffff1614610ea857600080fd5b816006600083815260200190815260200160002060006101000a81548173ffffffffffffffffffffffffffffffffffffffff021916908373ffffffffffffffffffffffffffffffffffffffff1602179055505050565b600080fd5b6000819050919050565b610f1681610f03565b8114610f2157600080fd5b50565b600081359050610f3381610f0d565b92915050565b600060208284031215610f4f57610f4e610efe565b5b6000610f5d84828501610f24565b91505092915050565b60008115159050919050565b610f7b81610f66565b82525050565b6000602082019050610f966000830184610f72565b92915050565b600080600060608486031215610fb557610fb4610efe565b5b6000610fc386828701610f24565b9350506020610fd486828701610f24565b9250506040610fe586828701610f24565b9150509250925092565b600073ffffffffffffffffffffffffffffffffffffffff82169050919050565b600061101a82610fef565b9050919050565b61102a8161100f565b82525050565b60006020820190506110456000830184611021565b92915050565b61105481610f03565b82525050565b600060208201905061106f600083018461104b565b92915050565b61107e8161100f565b811461108957600080fd5b50565b60008135905061109b81611075565b92915050565b6000602082840312156110b7576110b6610efe565b5b60006110c58482850161108c565b91505092915050565b600080604083850312156110e5576110e4610efe565b5b60006110f385828601610f24565b925050602061110485828601610f24565b9150509250929050565b600061111982610fef565b9050919050565b6111298161110e565b82525050565b60006020820190506111446000830184611120565b92915050565b6000806040838503121561116157611160610efe565b5b600061116f8582860161108c565b925050602061118085828601610f24565b9150509250929050565b600082825260208201905092915050565b7f556e7265636f676e697a656420746f6b656e0000000000000000000000000000600082015250565b60006111d160128361118a565b91506111dc8261119b565b602082019050919050565b60006020820190508181036000830152611200816111c4565b9050919050565b7f526f6f6d20756e617661696c61626c6500000000000000000000000000000000600082015250565b600061123d60108361118a565b915061124882611207565b602082019050919050565b6000602082019050818103600083015261126c81611230565b9050919050565b7f4e487b7100000000000000000000000000000000000000000000000000000000600052601260045260246000fd5b7f4e487b7100000000000000000000000000000000000000000000000000000000600052601160045260246000fd5b60006112dc82610f03565b91506112e783610f03565b9250826112f7576112f6611273565b5b828204905092915050565b600061130d82610f03565b915061131883610f03565b9250817fffffffffffffffffffffffffffffffffffffffffffffffffffffffffffffffff0483118215151615611351576113506112a2565b5b828202905092915050565b7f496e73756666696369656e742046756e6420746f20636f6d706c65746520707560008201527f7263686173650000000000000000000000000000000000000000000000000000602082015250565b60006113b860268361118a565b91506113c38261135c565b604082019050919050565b600060208201905081810360008301526113e7816113ab565b9050919050565b7f526f6f6d2068617320616c7265616479206265656e20626f6f6b656400000000600082015250565b6000611424601c8361118a565b915061142f826113ee565b602082019050919050565b6000602082019050818103600083015261145381611417565b9050919050565b6000819050919050565b600061147f61147a61147584610fef565b61145a565b610fef565b9050919050565b600061149182611464565b9050919050565b60006114a382611486565b9050919050565b6114b381611498565b82525050565b60006060820190506114ce6000830186611021565b6114db60208301856114aa565b6114e8604083018461104b565b949350505050565b60006114fb82610f03565b915061150683610f03565b9250827fffffffffffffffffffffffffffffffffffffffffffffffffffffffffffffffff0382111561153b5761153a6112a2565b5b828201905092915050565b7f4e6f7420656e6f756768206c6f79616c7479506f696e74730000000000000000600082015250565b600061157c60188361118a565b915061158782611546565b602082019050919050565b600060208201905081810360008301526115ab8161156f565b9050919050565b60006115bd82610f03565b91506115c883610f03565b9250826115d8576115d7611273565b5b82820690509291505056fea2646970667358221220aaa5c46d6e497316581f978168d936be4feafae12982d2524ac7a9454a1f5ab364736f6c634300080c0033",
  "immutableReferences": {},
  "source": "// SPDX-License-Identifier:MIT\r\npragma solidity ^0.8.12;\r\n\r\ncontract Hotel {\r\n    address payable public deployer;\r\n    // uint256 price;\r\n    mapping(uint256 => uint256) public blockTimestamp;\r\n    mapping(address => uint256) public discountToken;\r\n    uint256 maxRoomNumber;\r\n    mapping(uint256 => bool) public booked;\r\n    mapping(address => uint256) public loyaltyPoints;\r\n    mapping(uint256 => address) public roomOwner;\r\n    mapping(uint256 => uint256) timestamp;\r\n    mapping(uint256 => uint256) public roomPrice;\r\n    mapping(uint256 => uint256) public roomLoyaltyPoints;\r\n\r\n    constructor(uint256 _maxRoomNumber) {\r\n        require(_maxRoomNumber <= 20);\r\n        maxRoomNumber = _maxRoomNumber;\r\n        deployer = payable(msg.sender);\r\n        for (uint256 i = 1; i <= maxRoomNumber; i++) {\r\n            if (i < 5) {\r\n                roomPrice[i] = 0.01 ether;\r\n                roomLoyaltyPoints[i] = 3;\r\n            } else if (i >= 5 && i < 10) {\r\n                roomPrice[i] = 0.02 ether;\r\n                roomLoyaltyPoints[i] = 7;\r\n            } else if (i >= 10 && i < 15) {\r\n                roomPrice[i] = 0.03 ether;\r\n                roomLoyaltyPoints[i] = 12;\r\n            } else {\r\n                roomPrice[i] = 0.04 ether;\r\n                roomLoyaltyPoints[i] = 15;\r\n            }\r\n            // roomPrice[i] = price;\r\n            booked[i] = false;\r\n        }\r\n    }\r\n\r\n    event Transfer(address _from, address _to, uint256 _amount);\r\n\r\n    function bookRoom(uint256 _roomNumber, uint256 _period) public payable {\r\n        require(\r\n            _roomNumber > 0 && _roomNumber <= maxRoomNumber,\r\n            \"Room unavailable\"\r\n        );\r\n        require(\r\n            msg.value >= (_period / 30) * roomPrice[_roomNumber],\r\n            \"Insufficient Fund to complete purchase\"\r\n        );\r\n        require(booked[_roomNumber] == false, \"Room has already been booked\");\r\n\r\n        booked[_roomNumber] = true;\r\n        roomOwner[_roomNumber] = msg.sender;\r\n\r\n        // Emitting the transfer and doing th transfer\r\n        deployer.transfer(msg.value);\r\n        emit Transfer(msg.sender, deployer, msg.value);\r\n\r\n        // Setting loyaltyPoints\r\n        loyaltyPoints[msg.sender] +=\r\n            (_period / 30) *\r\n            roomLoyaltyPoints[_roomNumber];\r\n\r\n        // Setting timestamp\r\n\r\n        _period = _period * 60;\r\n        timestamp[_roomNumber] = block.timestamp + _period;\r\n        blockTimestamp[_roomNumber] = block.timestamp;\r\n    }\r\n\r\n    function transferRoomOwnership(address _address, uint256 _roomNumber)\r\n        public\r\n    {\r\n        require(roomOwner[_roomNumber] == msg.sender);\r\n        roomOwner[_roomNumber] = _address;\r\n    }\r\n\r\n    function viewTimeLeft(uint256 _roomNumber) public returns (uint256) {\r\n        require(booked[_roomNumber] = true);\r\n        return timestamp[_roomNumber];\r\n    }\r\n\r\n    function extendTime(uint256 _roomNumber, uint256 _period) public payable {\r\n        require(roomOwner[_roomNumber] == msg.sender);\r\n        require((_period / 30) * 0.01 ether <= msg.value);\r\n        // Setting loyaltyPoints\r\n        loyaltyPoints[msg.sender] +=\r\n            (_period / 30) *\r\n            roomLoyaltyPoints[_roomNumber];\r\n\r\n        _period = _period * 60;\r\n        timestamp[_roomNumber] += _period;\r\n    }\r\n\r\n    function getDiscount() public payable returns (uint256) {\r\n        require(loyaltyPoints[msg.sender] >= 200, \"Not enough loyaltyPoints\");\r\n        uint256 token = uint256(keccak256(\"grabtoken\")) % 10000000;\r\n        discountToken[msg.sender] = token;\r\n        loyaltyPoints[msg.sender] = 0;\r\n        return token;\r\n    }\r\n\r\n    function bookWithDiscount(\r\n        uint256 _discountToken,\r\n        uint256 _roomNumber,\r\n        uint256 _period\r\n    ) public payable {\r\n        require(\r\n            discountToken[msg.sender] == _discountToken && _discountToken != 0,\r\n            \"Unrecognized token\"\r\n        );\r\n        require(\r\n            _roomNumber > 0 && _roomNumber <= maxRoomNumber,\r\n            \"Room unavailable\"\r\n        );\r\n        require(\r\n            msg.value >= (((_period / 30) * roomPrice[_roomNumber]) * 8) / 10,\r\n            \"Insufficient Fund to complete purchase\"\r\n        );\r\n        require(booked[_roomNumber] == false, \"Room has already been booked\");\r\n        discountToken[msg.sender] == 0;\r\n        //  When claiming a discount no loyalty points are added\r\n\r\n        booked[_roomNumber] = true;\r\n        roomOwner[_roomNumber] = msg.sender;\r\n\r\n        // Emitting the transfer and doing th transfer\r\n        deployer.transfer(msg.value);\r\n        emit Transfer(msg.sender, deployer, msg.value);\r\n\r\n        // Setting timestamp\r\n\r\n        _period = _period * 60;\r\n        timestamp[_roomNumber] = block.timestamp + _period;\r\n        blockTimestamp[_roomNumber] = block.timestamp;\r\n    }\r\n}\r\n",
  "sourcePath": "P:\\Web3 projects\\recap\\truffle\\contracts\\Hotel.sol",
  "compiler": {
    "name": "solc",
    "version": "0.8.12+commit.f00d7308.Emscripten.clang"
  },
  "schemaVersion": "3.4.6",
  "updatedAt": "2022-04-05T14:54:10.621Z",
  "devdoc": {
    "kind": "dev",
    "methods": {},
    "version": 1
  },
  "userdoc": {
    "kind": "user",
    "methods": {},
    "version": 1
  }
}