{
  "contractName": "Hotel",
  "abi": [
    {
      "inputs": [
        {
          "internalType": "uint256",
          "name": "_maxRoomNumber",
          "type": "uint256"
        }
      ],
      "stateMutability": "nonpayable",
      "type": "constructor"
    },
    {
      "anonymous": false,
      "inputs": [
        {
          "indexed": false,
          "internalType": "address",
          "name": "_from",
          "type": "address"
        },
        {
          "indexed": false,
          "internalType": "address",
          "name": "_to",
          "type": "address"
        },
        {
          "indexed": false,
          "internalType": "uint256",
          "name": "_amount",
          "type": "uint256"
        }
      ],
      "name": "Transfer",
      "type": "event"
    },
    {
      "inputs": [
        {
          "internalType": "uint256",
          "name": "",
          "type": "uint256"
        }
      ],
      "name": "booked",
      "outputs": [
        {
          "internalType": "bool",
          "name": "",
          "type": "bool"
        }
      ],
      "stateMutability": "view",
      "type": "function",
      "constant": true
    },
    {
      "inputs": [],
      "name": "deployer",
      "outputs": [
        {
          "internalType": "address payable",
          "name": "",
          "type": "address"
        }
      ],
      "stateMutability": "view",
      "type": "function",
      "constant": true
    },
    {
      "inputs": [],
      "name": "viewAvailableRooms",
      "outputs": [
        {
          "internalType": "uint256[]",
          "name": "",
          "type": "uint256[]"
        }
      ],
      "stateMutability": "view",
      "type": "function",
      "constant": true
    },
    {
      "inputs": [
        {
          "internalType": "uint256",
          "name": "_roomNumber",
          "type": "uint256"
        }
      ],
      "name": "bookRoom",
      "outputs": [],
      "stateMutability": "payable",
      "type": "function",
      "payable": true
    },
    {
      "inputs": [
        {
          "internalType": "uint256",
          "name": "_roomNumber",
          "type": "uint256"
        }
      ],
      "name": "viewRoomPrice",
      "outputs": [
        {
          "internalType": "uint256",
          "name": "",
          "type": "uint256"
        }
      ],
      "stateMutability": "view",
      "type": "function",
      "constant": true
    },
    {
      "inputs": [
        {
          "internalType": "address",
          "name": "_address",
          "type": "address"
        }
      ],
      "name": "viewOwnedRoom",
      "outputs": [
        {
          "internalType": "uint256[]",
          "name": "",
          "type": "uint256[]"
        }
      ],
      "stateMutability": "view",
      "type": "function",
      "constant": true
    },
    {
      "inputs": [
        {
          "internalType": "uint256",
          "name": "_roomNumber",
          "type": "uint256"
        }
      ],
      "name": "extendTimeSpan",
      "outputs": [],
      "stateMutability": "nonpayable",
      "type": "function"
    },
    {
      "inputs": [
        {
          "internalType": "address",
          "name": "_address",
          "type": "address"
        },
        {
          "internalType": "uint256",
          "name": "_roomNumber",
          "type": "uint256"
        }
      ],
      "name": "viewTimeLeft",
      "outputs": [
        {
          "internalType": "uint256",
          "name": "",
          "type": "uint256"
        }
      ],
      "stateMutability": "view",
      "type": "function",
      "constant": true
    }
  ],
  "bytecode": "0x60806040523480156200001157600080fd5b506040516200102438038062001024833981810160405281019062000037919062000227565b60148111156200004657600080fd5b336000806101000a81548173ffffffffffffffffffffffffffffffffffffffff021916908373ffffffffffffffffffffffffffffffffffffffff1602179055506000600190505b818111620001df576005811015620000b357662386f26fc100006004819055506200011c565b60058110158015620000c55750600a81105b15620000df5766470de4df8200006004819055506200011b565b600a8110158015620000f15750600f81105b156200010b57666a94d74f4300006004819055506200011a565b668e1bc9bf0400006004819055505b5b5b60076040518060400160405280838152602001600454815250908060018154018082558091505060019003906000526020600020906002020160009091909190915060008201518160000155602082015181600101555050600581908060018154018082558091505060019003906000526020600020016000909190919091505560006006600083815260200190815260200160002060006101000a81548160ff0219169083151502179055508080620001d69062000288565b9150506200008d565b5050620002d6565b600080fd5b6000819050919050565b6200020181620001ec565b81146200020d57600080fd5b50565b6000815190506200022181620001f6565b92915050565b60006020828403121562000240576200023f620001e7565b5b6000620002508482850162000210565b91505092915050565b7f4e487b7100000000000000000000000000000000000000000000000000000000600052601160045260246000fd5b60006200029582620001ec565b91507fffffffffffffffffffffffffffffffffffffffffffffffffffffffffffffffff821415620002cb57620002ca62000259565b5b600182019050919050565b610d3e80620002e66000396000f3fe60806040526004361061007b5760003560e01c80635f49d3d81161004e5780635f49d3d8146101625780638345f29c1461017e57806391f4be83146101bb578063d5f39488146101e45761007b565b80630ebcefb114610080578063129d8e68146100bd578063444f9fa7146100fa578063489d4e3514610137575b600080fd5b34801561008c57600080fd5b506100a760048036038101906100a2919061089f565b61020f565b6040516100b491906108ee565b60405180910390f35b3480156100c957600080fd5b506100e460048036038101906100df9190610909565b61026a565b6040516100f19190610951565b60405180910390f35b34801561010657600080fd5b50610121600480360381019061011c919061096c565b61028a565b60405161012e9190610a57565b60405180910390f35b34801561014357600080fd5b5061014c610321565b6040516101599190610a57565b60405180910390f35b61017c60048036038101906101779190610909565b610379565b005b34801561018a57600080fd5b506101a560048036038101906101a09190610909565b61065f565b6040516101b291906108ee565b60405180910390f35b3480156101c757600080fd5b506101e260048036038101906101dd9190610909565b61069a565b005b3480156101f057600080fd5b506101f9610752565b6040516102069190610a9a565b60405180910390f35b6000600260008473ffffffffffffffffffffffffffffffffffffffff1673ffffffffffffffffffffffffffffffffffffffff168152602001908152602001600020600083815260200190815260200160002054905092915050565b60066020528060005260406000206000915054906101000a900460ff1681565b6060600160008373ffffffffffffffffffffffffffffffffffffffff1673ffffffffffffffffffffffffffffffffffffffff16815260200190815260200160002080548060200260200160405190810160405280929190818152602001828054801561031557602002820191906000526020600020905b815481526020019060010190808311610301575b50505050509050919050565b6060600580548060200260200160405190810160405280929190818152602001828054801561036f57602002820191906000526020600020905b81548152602001906001019080831161035b575b5050505050905090565b60008111801561038e57506007805490508111155b6103cd576040517f08c379a00000000000000000000000000000000000000000000000000000000081526004016103c490610b12565b60405180910390fd5b600781815481106103e1576103e0610b32565b5b9060005260206000209060020201600101543410156103ff57600080fd5b600115156006600083815260200190815260200160002060009054906101000a900460ff161515141561043157600080fd5b600160003373ffffffffffffffffffffffffffffffffffffffff1673ffffffffffffffffffffffffffffffffffffffff16815260200190815260200160002081908060018154018082558091505060019003906000526020600020016000909190919091505560016006600083815260200190815260200160002060006101000a81548160ff021916908315150217905550600360006104d19190610776565b60005b600580549050811015610525578181146105125760038190806001815401808255809150506001900390600052602060002001600090919091909150555b808061051d90610b90565b9150506104d4565b5060036005908054610538929190610797565b5060008054906101000a900473ffffffffffffffffffffffffffffffffffffffff1673ffffffffffffffffffffffffffffffffffffffff166108fc349081150290604051600060405180830381858888f1935050505015801561059f573d6000803e3d6000fd5b507fddf252ad1be2c89b69c2b068fc378daa952ba7f163c4a11628f55a4df523b3ef3360008054906101000a900473ffffffffffffffffffffffffffffffffffffffff16346040516105f393929190610c47565b60405180910390a160b4426106089190610c7e565b600260003373ffffffffffffffffffffffffffffffffffffffff1673ffffffffffffffffffffffffffffffffffffffff16815260200190815260200160002060008381526020019081526020016000208190555050565b600060076001836106709190610cd4565b8154811061068157610680610b32565b5b9060005260206000209060020201600101549050919050565b60016006600083815260200190815260200160002060006101000a81548160ff02191690831515021790556106ce57600080fd5b6000805b600160003373ffffffffffffffffffffffffffffffffffffffff1673ffffffffffffffffffffffffffffffffffffffff1681526020019081526020016000208054905081101561074d578283141561072957600191505b600115158215151461073a57600080fd5b808061074590610b90565b9150506106d2565b505050565b60008054906101000a900473ffffffffffffffffffffffffffffffffffffffff1681565b508054600082559060005260206000209081019061079491906107e9565b50565b8280548282559060005260206000209081019282156107d85760005260206000209182015b828111156107d75782548255916001019190600101906107bc565b5b5090506107e591906107e9565b5090565b5b808211156108025760008160009055506001016107ea565b5090565b600080fd5b600073ffffffffffffffffffffffffffffffffffffffff82169050919050565b60006108368261080b565b9050919050565b6108468161082b565b811461085157600080fd5b50565b6000813590506108638161083d565b92915050565b6000819050919050565b61087c81610869565b811461088757600080fd5b50565b60008135905061089981610873565b92915050565b600080604083850312156108b6576108b5610806565b5b60006108c485828601610854565b92505060206108d58582860161088a565b9150509250929050565b6108e881610869565b82525050565b600060208201905061090360008301846108df565b92915050565b60006020828403121561091f5761091e610806565b5b600061092d8482850161088a565b91505092915050565b60008115159050919050565b61094b81610936565b82525050565b60006020820190506109666000830184610942565b92915050565b60006020828403121561098257610981610806565b5b600061099084828501610854565b91505092915050565b600081519050919050565b600082825260208201905092915050565b6000819050602082019050919050565b6109ce81610869565b82525050565b60006109e083836109c5565b60208301905092915050565b6000602082019050919050565b6000610a0482610999565b610a0e81856109a4565b9350610a19836109b5565b8060005b83811015610a4a578151610a3188826109d4565b9750610a3c836109ec565b925050600181019050610a1d565b5085935050505092915050565b60006020820190508181036000830152610a7181846109f9565b905092915050565b6000610a848261080b565b9050919050565b610a9481610a79565b82525050565b6000602082019050610aaf6000830184610a8b565b92915050565b600082825260208201905092915050565b7f526f6f6d20756e617661696c61626c6500000000000000000000000000000000600082015250565b6000610afc601083610ab5565b9150610b0782610ac6565b602082019050919050565b60006020820190508181036000830152610b2b81610aef565b9050919050565b7f4e487b7100000000000000000000000000000000000000000000000000000000600052603260045260246000fd5b7f4e487b7100000000000000000000000000000000000000000000000000000000600052601160045260246000fd5b6000610b9b82610869565b91507fffffffffffffffffffffffffffffffffffffffffffffffffffffffffffffffff821415610bce57610bcd610b61565b5b600182019050919050565b610be28161082b565b82525050565b6000819050919050565b6000610c0d610c08610c038461080b565b610be8565b61080b565b9050919050565b6000610c1f82610bf2565b9050919050565b6000610c3182610c14565b9050919050565b610c4181610c26565b82525050565b6000606082019050610c5c6000830186610bd9565b610c696020830185610c38565b610c7660408301846108df565b949350505050565b6000610c8982610869565b9150610c9483610869565b9250827fffffffffffffffffffffffffffffffffffffffffffffffffffffffffffffffff03821115610cc957610cc8610b61565b5b828201905092915050565b6000610cdf82610869565b9150610cea83610869565b925082821015610cfd57610cfc610b61565b5b82820390509291505056fea264697066735822122003010ccc2a2705d94260121457ba3699cb2aa6f175a6e192d1d1626a04f632f964736f6c634300080c0033",
  "immutableReferences": {},
  "source": "// SPDX-License-Identifier: MIT\r\npragma solidity ^0.8.12;\r\n\r\ncontract Hotel {\r\n    address payable public deployer;\r\n    mapping(address => uint256[]) roomOwnedBy;\r\n    mapping(address => mapping(uint256 => uint256)) timestamp;\r\n    uint256[] availableRoomsInstance;\r\n    uint256 price;\r\n    uint256[] availableRooms;\r\n    mapping(uint256 => bool) public booked;\r\n    struct hotelRoom {\r\n        uint256 hotelRoom;\r\n        uint256 roomPrice;\r\n    }\r\n    hotelRoom[] hotelRooms;\r\n    event Transfer(address _from, address _to, uint256 _amount);\r\n\r\n    constructor(uint256 _maxRoomNumber) {\r\n        require(_maxRoomNumber <= 20);\r\n        deployer = payable(msg.sender);\r\n        for (uint256 i = 1; i <= _maxRoomNumber; i++) {\r\n            if (i < 5) {\r\n                price = 0.01 ether;\r\n            } else if (i >= 5 && i < 10) {\r\n                price = 0.02 ether;\r\n            } else if (i >= 10 && i < 15) {\r\n                price = 0.03 ether;\r\n            } else {\r\n                price = 0.04 ether;\r\n            }\r\n            hotelRooms.push(hotelRoom(i, price));\r\n            availableRooms.push(i);\r\n            booked[i] = false;\r\n        }\r\n    }\r\n\r\n    function viewAvailableRooms() public view returns (uint256[] memory) {\r\n        return availableRooms;\r\n    }\r\n\r\n    function bookRoom(uint256 _roomNumber) public payable {\r\n        require(\r\n            _roomNumber > 0 && _roomNumber <= hotelRooms.length,\r\n            \"Room unavailable\"\r\n        );\r\n        require(msg.value >= hotelRooms[_roomNumber].roomPrice);\r\n        require(booked[_roomNumber] != true);\r\n\r\n        roomOwnedBy[msg.sender].push(_roomNumber);\r\n        booked[_roomNumber] = true;\r\n\r\n        // Removing room from available rooms\r\n        delete availableRoomsInstance;\r\n        for (uint256 i = 0; i < availableRooms.length; i++) {\r\n            if (i != _roomNumber) {\r\n                availableRoomsInstance.push(i);\r\n            }\r\n        }\r\n        availableRooms = availableRoomsInstance;\r\n\r\n        // Emitting the transfer and doing th transfer\r\n        deployer.transfer(msg.value);\r\n        emit Transfer(msg.sender, deployer, msg.value);\r\n\r\n        //  Setting the time duration\r\n        timestamp[msg.sender][_roomNumber] = block.timestamp + 3 minutes;\r\n    }\r\n\r\n    function viewRoomPrice(uint256 _roomNumber) public view returns (uint256) {\r\n        return hotelRooms[_roomNumber - 1].roomPrice;\r\n    }\r\n\r\n    function viewOwnedRoom(address _address)\r\n        public\r\n        view\r\n        returns (uint256[] memory)\r\n    {\r\n        return roomOwnedBy[_address];\r\n    }\r\n\r\n    function extendTimeSpan(uint256 _roomNumber) public {\r\n        require(booked[_roomNumber] = true);\r\n        // Making sure the person really owns the room\r\n        bool ownedBySender = false;\r\n        for (uint256 i = 0; i < roomOwnedBy[msg.sender].length; i++) {\r\n            if (_roomNumber == _roomNumber) {\r\n                ownedBySender = true;\r\n            }\r\n            require(ownedBySender == true);\r\n        }\r\n    }\r\n\r\n    function viewTimeLeft(address _address, uint256 _roomNumber)\r\n        public\r\n        view\r\n        returns (uint256)\r\n    {\r\n        return timestamp[_address][_roomNumber];\r\n    }\r\n}\r\n",
  "sourcePath": "P:\\Web3 projects\\recap\\truffle\\contracts\\Hotel.sol",
  "compiler": {
    "name": "solc",
    "version": "0.8.12+commit.f00d7308.Emscripten.clang"
  },
  "schemaVersion": "3.4.6",
  "updatedAt": "2022-04-02T20:43:30.272Z",
  "networkType": "ethereum",
  "devdoc": {
    "kind": "dev",
    "methods": {},
    "version": 1
  },
  "userdoc": {
    "kind": "user",
    "methods": {},
    "version": 1
  }
}