{
  "contractName": "Hotel",
  "abi": [
    {
      "inputs": [
        {
          "internalType": "uint256",
          "name": "_maxRoomNumber",
          "type": "uint256"
        }
      ],
      "stateMutability": "nonpayable",
      "type": "constructor"
    },
    {
      "anonymous": false,
      "inputs": [
        {
          "indexed": false,
          "internalType": "address",
          "name": "_from",
          "type": "address"
        },
        {
          "indexed": false,
          "internalType": "address",
          "name": "_to",
          "type": "address"
        },
        {
          "indexed": false,
          "internalType": "uint256",
          "name": "_amount",
          "type": "uint256"
        }
      ],
      "name": "Transfer",
      "type": "event"
    },
    {
      "inputs": [
        {
          "internalType": "uint256",
          "name": "",
          "type": "uint256"
        }
      ],
      "name": "blockTimestamp",
      "outputs": [
        {
          "internalType": "uint256",
          "name": "",
          "type": "uint256"
        }
      ],
      "stateMutability": "view",
      "type": "function"
    },
    {
      "inputs": [
        {
          "internalType": "uint256",
          "name": "",
          "type": "uint256"
        }
      ],
      "name": "booked",
      "outputs": [
        {
          "internalType": "bool",
          "name": "",
          "type": "bool"
        }
      ],
      "stateMutability": "view",
      "type": "function"
    },
    {
      "inputs": [],
      "name": "deployer",
      "outputs": [
        {
          "internalType": "address payable",
          "name": "",
          "type": "address"
        }
      ],
      "stateMutability": "view",
      "type": "function"
    },
    {
      "inputs": [
        {
          "internalType": "uint256",
          "name": "",
          "type": "uint256"
        }
      ],
      "name": "roomOwner",
      "outputs": [
        {
          "internalType": "address",
          "name": "",
          "type": "address"
        }
      ],
      "stateMutability": "view",
      "type": "function"
    },
    {
      "inputs": [
        {
          "internalType": "uint256",
          "name": "",
          "type": "uint256"
        }
      ],
      "name": "roomPrice",
      "outputs": [
        {
          "internalType": "uint256",
          "name": "",
          "type": "uint256"
        }
      ],
      "stateMutability": "view",
      "type": "function"
    },
    {
      "inputs": [
        {
          "internalType": "uint256",
          "name": "_roomNumber",
          "type": "uint256"
        }
      ],
      "name": "bookRoom",
      "outputs": [],
      "stateMutability": "payable",
      "type": "function"
    },
    {
      "inputs": [
        {
          "internalType": "address",
          "name": "_address",
          "type": "address"
        },
        {
          "internalType": "uint256",
          "name": "_roomNumber",
          "type": "uint256"
        }
      ],
      "name": "transferRoomOwnership",
      "outputs": [],
      "stateMutability": "nonpayable",
      "type": "function"
    },
    {
      "inputs": [
        {
          "internalType": "uint256",
          "name": "_roomNumber",
          "type": "uint256"
        }
      ],
      "name": "viewTimeLeft",
      "outputs": [
        {
          "internalType": "uint256",
          "name": "",
          "type": "uint256"
        }
      ],
      "stateMutability": "nonpayable",
      "type": "function"
    },
    {
      "inputs": [
        {
          "internalType": "uint256",
          "name": "_roomNumber",
          "type": "uint256"
        },
        {
          "internalType": "uint256",
          "name": "_period",
          "type": "uint256"
        }
      ],
      "name": "extendTime",
      "outputs": [],
      "stateMutability": "payable",
      "type": "function"
    }
  ],
  "bytecode": "0x60806040523480156200001157600080fd5b5060405162000f7c38038062000f7c8339818101604052810190620000379190620001c9565b60148111156200004657600080fd5b80600381905550336000806101000a81548173ffffffffffffffffffffffffffffffffffffffff021916908373ffffffffffffffffffffffffffffffffffffffff1602179055506000600190505b600354811162000181576005811015620000bc57662386f26fc1000060018190555062000125565b60058110158015620000ce5750600a81105b15620000e85766470de4df82000060018190555062000124565b600a8110158015620000fa5750600f81105b156200011457666a94d74f43000060018190555062000123565b668e1bc9bf0400006001819055505b5b5b600154600760008381526020019081526020016000208190555060006004600083815260200190815260200160002060006101000a81548160ff021916908315150217905550808062000178906200022a565b91505062000094565b505062000278565b600080fd5b6000819050919050565b620001a3816200018e565b8114620001af57600080fd5b50565b600081519050620001c38162000198565b92915050565b600060208284031215620001e257620001e162000189565b5b6000620001f284828501620001b2565b91505092915050565b7f4e487b7100000000000000000000000000000000000000000000000000000000600052601160045260246000fd5b600062000237826200018e565b91507fffffffffffffffffffffffffffffffffffffffffffffffffffffffffffffffff8214156200026d576200026c620001fb565b5b600182019050919050565b610cf480620002886000396000f3fe6080604052600436106100865760003560e01c806373d8903b1161005957806373d8903b1461015e57806380fbf5831461019b578063d5f39488146101d8578063f7ccc18414610203578063f8d917ed1461021f57610086565b8063129d8e681461008b578063354da17b146100c85780634b7699cf146101055780635f49d3d814610142575b600080fd5b34801561009757600080fd5b506100b260048036038101906100ad919061079d565b610248565b6040516100bf91906107e5565b60405180910390f35b3480156100d457600080fd5b506100ef60048036038101906100ea919061079d565b610268565b6040516100fc9190610841565b60405180910390f35b34801561011157600080fd5b5061012c6004803603810190610127919061079d565b61029b565b604051610139919061086b565b60405180910390f35b61015c6004803603810190610157919061079d565b6102ec565b005b34801561016a57600080fd5b506101856004803603810190610180919061079d565b61057a565b604051610192919061086b565b60405180910390f35b3480156101a757600080fd5b506101c260048036038101906101bd919061079d565b610592565b6040516101cf919061086b565b60405180910390f35b3480156101e457600080fd5b506101ed6105aa565b6040516101fa91906108a7565b60405180910390f35b61021d600480360381019061021891906108c2565b6105ce565b005b34801561022b57600080fd5b506102466004803603810190610241919061092e565b6106a1565b005b60046020528060005260406000206000915054906101000a900460ff1681565b60056020528060005260406000206000915054906101000a900473ffffffffffffffffffffffffffffffffffffffff1681565b600060016004600084815260200190815260200160002060006101000a81548160ff02191690831515021790556102d157600080fd5b60066000838152602001908152602001600020549050919050565b6000811180156102fe57506003548111155b61033d576040517f08c379a0000000000000000000000000000000000000000000000000000000008152600401610334906109cb565b60405180910390fd5b6007600082815260200190815260200160002054341015610393576040517f08c379a000000000000000000000000000000000000000000000000000000000815260040161038a90610a5d565b60405180910390fd5b600015156004600083815260200190815260200160002060009054906101000a900460ff161515146103fa576040517f08c379a00000000000000000000000000000000000000000000000000000000081526004016103f190610ac9565b60405180910390fd5b60016004600083815260200190815260200160002060006101000a81548160ff021916908315150217905550336005600083815260200190815260200160002060006101000a81548173ffffffffffffffffffffffffffffffffffffffff021916908373ffffffffffffffffffffffffffffffffffffffff16021790555060008054906101000a900473ffffffffffffffffffffffffffffffffffffffff1673ffffffffffffffffffffffffffffffffffffffff166108fc349081150290604051600060405180830381858888f193505050501580156104de573d6000803e3d6000fd5b507fddf252ad1be2c89b69c2b068fc378daa952ba7f163c4a11628f55a4df523b3ef3360008054906101000a900473ffffffffffffffffffffffffffffffffffffffff163460405161053293929190610b48565b60405180910390a1610708426105489190610bae565b600660008381526020019081526020016000208190555042600260008381526020019081526020016000208190555050565b60026020528060005260406000206000915090505481565b60076020528060005260406000206000915090505481565b60008054906101000a900473ffffffffffffffffffffffffffffffffffffffff1681565b3373ffffffffffffffffffffffffffffffffffffffff166005600084815260200190815260200160002060009054906101000a900473ffffffffffffffffffffffffffffffffffffffff1673ffffffffffffffffffffffffffffffffffffffff161461063957600080fd5b34662386f26fc10000601e8361064f9190610c33565b6106599190610c64565b111561066457600080fd5b603c816106719190610c64565b9050806006600084815260200190815260200160002060008282546106969190610bae565b925050819055505050565b3373ffffffffffffffffffffffffffffffffffffffff166005600083815260200190815260200160002060009054906101000a900473ffffffffffffffffffffffffffffffffffffffff1673ffffffffffffffffffffffffffffffffffffffff161461070c57600080fd5b816005600083815260200190815260200160002060006101000a81548173ffffffffffffffffffffffffffffffffffffffff021916908373ffffffffffffffffffffffffffffffffffffffff1602179055505050565b600080fd5b6000819050919050565b61077a81610767565b811461078557600080fd5b50565b60008135905061079781610771565b92915050565b6000602082840312156107b3576107b2610762565b5b60006107c184828501610788565b91505092915050565b60008115159050919050565b6107df816107ca565b82525050565b60006020820190506107fa60008301846107d6565b92915050565b600073ffffffffffffffffffffffffffffffffffffffff82169050919050565b600061082b82610800565b9050919050565b61083b81610820565b82525050565b60006020820190506108566000830184610832565b92915050565b61086581610767565b82525050565b6000602082019050610880600083018461085c565b92915050565b600061089182610800565b9050919050565b6108a181610886565b82525050565b60006020820190506108bc6000830184610898565b92915050565b600080604083850312156108d9576108d8610762565b5b60006108e785828601610788565b92505060206108f885828601610788565b9150509250929050565b61090b81610820565b811461091657600080fd5b50565b60008135905061092881610902565b92915050565b6000806040838503121561094557610944610762565b5b600061095385828601610919565b925050602061096485828601610788565b9150509250929050565b600082825260208201905092915050565b7f526f6f6d20756e617661696c61626c6500000000000000000000000000000000600082015250565b60006109b560108361096e565b91506109c08261097f565b602082019050919050565b600060208201905081810360008301526109e4816109a8565b9050919050565b7f496e73756666696369656e742046756e6420746f20636f6d706c65746520707560008201527f7263686173650000000000000000000000000000000000000000000000000000602082015250565b6000610a4760268361096e565b9150610a52826109eb565b604082019050919050565b60006020820190508181036000830152610a7681610a3a565b9050919050565b7f526f6f6d2068617320616c7265616479206265656e20626f6f6b656400000000600082015250565b6000610ab3601c8361096e565b9150610abe82610a7d565b602082019050919050565b60006020820190508181036000830152610ae281610aa6565b9050919050565b6000819050919050565b6000610b0e610b09610b0484610800565b610ae9565b610800565b9050919050565b6000610b2082610af3565b9050919050565b6000610b3282610b15565b9050919050565b610b4281610b27565b82525050565b6000606082019050610b5d6000830186610832565b610b6a6020830185610b39565b610b77604083018461085c565b949350505050565b7f4e487b7100000000000000000000000000000000000000000000000000000000600052601160045260246000fd5b6000610bb982610767565b9150610bc483610767565b9250827fffffffffffffffffffffffffffffffffffffffffffffffffffffffffffffffff03821115610bf957610bf8610b7f565b5b828201905092915050565b7f4e487b7100000000000000000000000000000000000000000000000000000000600052601260045260246000fd5b6000610c3e82610767565b9150610c4983610767565b925082610c5957610c58610c04565b5b828204905092915050565b6000610c6f82610767565b9150610c7a83610767565b9250817fffffffffffffffffffffffffffffffffffffffffffffffffffffffffffffffff0483118215151615610cb357610cb2610b7f565b5b82820290509291505056fea2646970667358221220902fe082bddb48e5541420d7908f298b3ddcae6293c22f4e702419f77603667164736f6c634300080c0033",
  "immutableReferences": {},
  "source": "// SPDX-License-Identifier: GPL-3.0\r\npragma solidity ^0.8.12;\r\n\r\ncontract Hotel {\r\n    address payable public deployer;\r\n    uint256 price;\r\n    mapping(uint256 => uint256) public blockTimestamp;\r\n    uint256 maxRoomNumber;\r\n    mapping(uint256 => bool) public booked;\r\n    mapping(uint256 => address) public roomOwner;\r\n    mapping(uint256 => uint256) timestamp;\r\n    mapping(uint256 => uint256) public roomPrice;\r\n\r\n    constructor(uint256 _maxRoomNumber) {\r\n        require(_maxRoomNumber <= 20);\r\n        maxRoomNumber = _maxRoomNumber;\r\n        deployer = payable(msg.sender);\r\n        for (uint256 i = 1; i <= maxRoomNumber; i++) {\r\n            if (i < 5) {\r\n                price = 0.01 ether;\r\n            } else if (i >= 5 && i < 10) {\r\n                price = 0.02 ether;\r\n            } else if (i >= 10 && i < 15) {\r\n                price = 0.03 ether;\r\n            } else {\r\n                price = 0.04 ether;\r\n            }\r\n            roomPrice[i] = price;\r\n            booked[i] = false;\r\n        }\r\n    }\r\n\r\n    event Transfer(address _from, address _to, uint256 _amount);\r\n\r\n    function bookRoom(uint256 _roomNumber) public payable {\r\n        require(\r\n            _roomNumber > 0 && _roomNumber <= maxRoomNumber,\r\n            \"Room unavailable\"\r\n        );\r\n        require(\r\n            msg.value >= roomPrice[_roomNumber],\r\n            \"Insufficient Fund to complete purchase\"\r\n        );\r\n        require(booked[_roomNumber] == false, \"Room has already been booked\");\r\n\r\n        booked[_roomNumber] = true;\r\n        roomOwner[_roomNumber] = msg.sender;\r\n\r\n        // Emitting the transfer and doing th transfer\r\n        deployer.transfer(msg.value);\r\n        emit Transfer(msg.sender, deployer, msg.value);\r\n\r\n        // Setting timestamp\r\n        timestamp[_roomNumber] = block.timestamp + 30 minutes;\r\n        blockTimestamp[_roomNumber] = block.timestamp;\r\n    }\r\n\r\n    function transferRoomOwnership(address _address, uint256 _roomNumber)\r\n        public\r\n    {\r\n        require(roomOwner[_roomNumber] == msg.sender);\r\n        roomOwner[_roomNumber] = _address;\r\n    }\r\n\r\n    function viewTimeLeft(uint256 _roomNumber) public returns (uint256) {\r\n        require(booked[_roomNumber] = true);\r\n        return timestamp[_roomNumber];\r\n    }\r\n\r\n    function extendTime(uint256 _roomNumber, uint256 _period) public payable {\r\n        require(roomOwner[_roomNumber] == msg.sender);\r\n        require((_period / 30) * 0.01 ether <= msg.value);\r\n        _period = _period * 60;\r\n        timestamp[_roomNumber] += _period;\r\n    }\r\n}\r\n",
  "sourcePath": "P:\\Web3 projects\\recap\\truffle\\contracts\\Hotel.sol",
  "compiler": {
    "name": "solc",
    "version": "0.8.12+commit.f00d7308.Emscripten.clang"
  },
  "schemaVersion": "3.4.6",
  "updatedAt": "2022-04-04T09:41:49.168Z",
  "devdoc": {
    "kind": "dev",
    "methods": {},
    "version": 1
  },
  "userdoc": {
    "kind": "user",
    "methods": {},
    "version": 1
  }
}